:020000040800F2
:10B00000B806002045B100084DB100084FB1000856
:10B0100051B1000853B1000855B10008000000000C
:10B0200000000000000000000000000057B1000810
:10B0300059B10008000000005BB100089DBE000887
:10B040005FB100085FB100085FB100085FB10008A0
:10B050005FB100085FB10008ABB50008FFB500089C
:10B0600005B600080BB6000811B60008B5B3000815
:10B07000CDB300085FB100085FB100085FB1000800
:10B080005FB100085FB100085FB100085FB1000860
:10B090005FB100085FB100085FB1000817B6000893
:10B0A0005FB100085FB100085FB100085FB1000840
:10B0B0005FB10008F1BE00085FB100085FB1000891
:10B0C0005FB100085FB100085FB100085FB1000820
:10B0D0005FB100080DD400085FB1000865D4000816
:10B0E000B1B500085FB100085FB100085FB10008AA
:10B0F0005FB100085FB100085FB100085FB10008F0
:10B100005FB100085FB100085FB100085FB10008DF
:10B1100039C3000891C300085FB100085FB100089F
:10B120005FB100085FB100085FB100085FB10008BF
:10B13000DFF80CD000F018F800480047B7D6000838
:10B14000B80600200648804706480047FEE7FEE7AD
:10B15000FEE7FEE7FEE7FEE7FEE7FEE7FEE7FEE7C7
:10B16000A1BE000831B10008064C074D06E0E068BA
:10B1700040F0010394E8070098471034AC42F6D33E
:10B18000FFF7DAFFC8D60008E8D600080029816872
:10B1900002D041F0010101E021F00101816070471E
:10B1A0000029816802D041F4807101E021F48071AE
:10B1B00081607047014600208968490700D5012059
:10B1C0007047014600208968090700D501207047B3
:10B1D00010B542680E4B0C791A400B6842EA042203
:10B1E0001343436083680B4A1340D1E90242224370
:10B1F0004C7943EA44031A438260C26A097C22F410
:10B200007002491EC9B242EA0151C16210BD00007C
:10B21000FFFEF0FFFDF7F1FF70B5072409290AD9F9
:10B22000C568A1F10A0606EB4606B440A543B34043
:10B230001D43C56007E0056901EB4106B440A54325
:10B24000B3401D4305611F23072A09D2446B521ED8
:10B2500002EB820293409C4391400C43446370BDD7
:10B260000D2A09D2046BD21F02EB820293409C4349
:10B2700091400C43046370BDC46A0D3A02EB820234
:10B2800093409C4391400C43C46270BD816841F07F
:10B290000801816070470029816802D041F4A00153
:10B2A00001E021F4A00181607047816841F0040150
:10B2B0008160704770B5234900220B460D79032445
:10B2C000DB78052D09D2DFE805F003090E121D0019
:10B2D000FF2801D1012004E0CA7070BDFF2808D109
:10B2E0000220087170BD20B9CA700C7170BD0328AE
:10B2F00001D00A71F0E7DB1C8C71CB70042008715F
:10B300004A7170BD8E790F4D4C793435761EB4423A
:10B3100006DA28551844C87004F101044C7170BD58
:10B32000FDD16FEA0303DBB2CB70834206D12878EC
:10B3300020B96878C871086B401C0863CA704A71EC
:10B340000A7170BD9800002010B5C0B201F07AF803
:10B35000B0F57A7F01DC002010BD012010BD000097
:10B3600030B51048427801788A421AD00E4A1368E4
:10B3700043F480431360C1EBC10202EB42040B4B68
:10B380000B4AE5186D1C95621B5D1362D36943F08F
:10B390000103D361491CC9B20170142901D10021F4
:10B3A000017030BD6F0000200C180140F400002037
:10B3B0000000024010B5022000F0AAF8002804D0D6
:10B3C000BDE81040012000F019B810BD094810B5C3
:10B3D000016889060DD510214160C16921F0010184
:10B3E000C161642002F007F80348016821F480413C
:10B3F000016010BD000002400C180140C10002D5E0
:10B4000002490860704702494860704704040240DE
:10B41000000002400029016802D041F0010102E071
:10B420004FF6FE72114001607047000001684FF650
:10B43000FE72114001600021016041608160C160C5
:10B440003149314A0839904203D1486840F00F0031
:10B4500006E02D4A1432904204D1486840F0F000D2
:10B4600048607047284A2832904203D1486840F427
:10B470007060F5E7244A3C32904203D1486840F4BA
:10B480007040EDE7204A5032904203D1486840F4C2
:10B490007020E5E71C4A6432904203D1486840F4CA
:10B4A0007000DDE7184A7832904203D1486840F0D6
:10B4B0007060D5E7154A111F904203D1086840F02B
:10B4C0000F0006E0114A1432904204D1086840F09F
:10B4D000F000086070470D4A2832904203D1086896
:10B4E00040F47060F5E7094A3C32904203D10868A5
:10B4F00040F47040EDE7054A50329042EAD10868C6
:10B5000040F47020E5E70000080002400804024013
:10B5100001460020CA0001D5034A00E0034A126830
:10B520000A4200D00120704700040240000002409F
:10B53000002A026801D00A4300E08A430260704793
:10B5400030B5036847F6F07293430C6A8A68224369
:10B55000D1E904452C4322438C692243CC69224320
:10B560004C6A22438C6A22431A430260CA684260D2
:10B570000A6882604968C16030BD4FF4FA5206E043
:10B58000401E80B20021491C89B29142FBD30028A1
:10B59000F6D1704706E0401E80B20021491C89B2F6
:10B5A0000829FBD30028F6D17047012000F068B8C5
:10B5B00010B54FF48064204600F052F8C8B964001A
:10B5C000204600F04DF8A0B96400204600F048F88D
:10B5D00078B96400204600F043F850B96400204672
:10B5E00000F03EF828B96400204600F039F8002841
:10B5F00004D02046BDE8104000F042B810BD022043
:10B6000000F03EB8042000F03BB8082000F038B845
:10B61000102000F035B810B5202000F021F808B156
:10B62000202018E0402000F01BF808B1402012E074
:10B63000802000F015F808B180200CE04FF48074F1
:10B64000204600F00DF828B96400204600F008F804
:10B65000002804D02046BDE8104000F011B810BD0D
:10B66000064A014600201268044B0A4014331B6846
:10B670000B4202D0002A00D0012070470004014094
:10B6800010B504460348016809B1204688470248BE
:10B69000046010BD680000201404014010B54FF490
:10B6A0004874224640F29E21012000F0B5FF224658
:10B6B0004FF49671022000F0AFFF40F2EE2001F04F
:10B6C0008DFE00F0A7F922464FF43471032000F0FC
:10B6D000A3FF22464FF4A571042000F09DFF2046F1
:10B6E00001F07CFE22464FF40271032000F094FF2B
:10B6F000224640F21221042000F08EFF204601F085
:10B700006DFE00F081FA4FF4FA7000F04FFA40F24B
:10B71000023001F063FEBDE8104000F075BA000091
:10B7200010B58A0721F003040649130F21440F22A4
:10B730008C689A4094438C608A68984002438A607F
:10B7400010BD000000000140F0B5CA78002502F0ED
:10B750000F03D20601D58A7813430A784FF00F0EF3
:10B7600012F0FF0F4FF001021CD004680F8802FA9C
:10B7700005F63740B74211D14FEA850C0EFA0CF7A7
:10B7800024EA070703FA0CF43C43CF78282F02D0B1
:10B79000482F02D002E0466100E006616D1C082DD2
:10B7A000E4D304600C88FF2C1ED944685FF00006C7
:10B7B00006F1080702FA07F50F882F40AF420FD1B4
:10B7C0004FEA860C0EFA0CF7BC4303FA0CF73C4325
:10B7D000CF78282F00D14561CF78482F00D105615F
:10B7E000761C082EE4D34460F0BD0000F0B5144C84
:10B7F000002801DAE36900E06368420D120185B2B6
:10B80000C0F301579540C0F30346032F05D0C20291
:10B810000AD50322B240934307E023F070626368C5
:10B8200023F07063636002E0AB4343F0706201B1E8
:10B830002A43002801DAE261F0BD6260F0BD000039
:10B84000000001404161704710B50620FFF77CFD04
:10B8500060B90920FFF778FD40B90720FFF774FDB4
:10B8600020B90A20FFF770FD002816D00620FFF748
:10B870006BFD01280BD10920FFF766FD38B90720C1
:10B88000FFF762FD18B90A20FFF75EFD20B1062020
:10B89000FFF75AFD10B10EE0012010BD0920FFF79F
:10B8A00053FD012807D10720FFF74EFD18B90A20E4
:10B8B000FFF74AFD20B10620FFF746FD10B10EE06C
:10B8C000022010BD0920FFF73FFD40B90720FFF718
:10B8D0003BFD012803D10A20FFF736FD20B10620E9
:10B8E000FFF732FD10B10EE0032010BD0920FFF775
:10B8F0002BFD40B90720FFF727FD20B90A20FFF7ED
:10B9000023FD012805D00620FFF71EFD012802D0E7
:10B910000EE0042010BD0920FFF716FD012807D115
:10B920000720FFF711FD18B90A20FFF70DFD20B120
:10B930000620FFF709FD10B10FE0052010BD09201A
:10B94000FFF702FD012808D10720FFF7FDFC20B911
:10B950000A20FFF7F9FC012804D00620FFF7F4FCC9
:10B9600010B10FE0062010BD0920FFF7EDFC48B92B
:10B970000720FFF7E9FC012804D10A20FFF7E4FCC7
:10B98000012805D00620FFF7DFFC012802D00EE0D9
:10B99000072010BD0920FFF7D7FC40B90720FFF7AB
:10B9A000D3FC012803D10A20FFF7CEFC10B14FF0E1
:10B9B000FF3010BD082010BD10B500F008F800F0F1
:10B9C00029F8BDE810404FF4FA7001F007BD10B53A
:10B9D0004FF448742246FA21032000F01DFE22464F
:10B9E000BDE810404FF46171042000F015BE10B5A1
:10B9F0000021032000F02AFE0021042000F026FE92
:10BA00000021012000F022FE0021BDE810400220AC
:10BA100000F01CBE10B54FF448742246AA21012044
:10BA200000F0FAFD2246BDE810401146022000F069
:10BA3000F3BD10B50121052000F008FE0121BDE88D
:10BA40001040062000F002BE10B501F035F9FFF7F6
:10BA5000CEFFFFF7EEFFBDE81040FFF7ADBF0000DF
:10BA600070B5154A0E464FF480740146146000BF4D
:10BA700000BF00BF4FF40070106000BF00BF00BFE8
:10BA80004FF4006010604310136000BF00BF00BFA0
:10BA9000094D2D1F286000BF00BF00BF084600F001
:10BAA0008BF900BF00BF00BF304600F085F900BF32
:10BAB00000BF00BF2C6070BD1414014030B51149A7
:10BAC0004FF480750D6000BF00BF00BF0D4C4FF4F8
:10BAD0000072241F226000BF00BF00BF4FF400624D
:10BAE0000A6053100B6000BF00BF00BF226000BFA0
:10BAF00000BF00BF00F060F900BF00BF00BF2560BD
:10BB000030BD00001414014008B50121102000F0E0
:10BB1000F3F80121202000F0EFF80D494FF4807078
:10BB2000086010208DF8030003208DF80200C0206B
:10BB3000ADF8000069460748FFF706FE4FF4706055
:10BB4000ADF80000024869461038FFF7FDFD08BD5A
:10BB5000101401400010014010B50446604201B2CB
:10BB6000052000F09BFD21B2BDE81040062000F04A
:10BB700095BD10B54FF4AA70FFF7EEFFBDE8104079
:10BB80004FF4E16001F02ABC10B5044601B2052073
:10BB900000F084FD604201B2062000F07FFD024902
:10BBA0000120087010BD00000000002070B50A4C94
:10BBB00005462078012801D100F026F8684201B23C
:10BBC0000D46052000F06AFD2946062000F066FDBE
:10BBD0000020207070BD00000000002070B5094CEE
:10BBE00005462078012801D100F00EF829B20D4653
:10BBF000052000F053FD2946062000F04FFD0020EF
:10BC0000207070BD0000002010B50021052000F05C
:10BC100045FD0021062000F041FDBDE81040032055
:10BC200001F0DCBB70B50F23C47801780122F4B1B8
:10BC3000144C2468457804F4E064C4F5E064240AF4
:10BC4000C4F10406E3408478B5401C402C4301F164
:10BC5000E021230181F80034007800F01F018A40C0
:10BC60004009800000F1E020C0F8002170BD01F023
:10BC70001F0082404809800000F1E020C0F88021C8
:10BC800070BD00000CED00E0024908430249086065
:10BC9000704700000000FA050CED00E0024A114078
:10BCA000014302480160704780FFFF1F08ED00E07C
:10BCB000044A0029516901D0014300E081435161E8
:10BCC0007047000000100240044A0029D16901D0E9
:10BCD000014300E08143D161704700000010024041
:10BCE000044A0029116901D0014300E08143116138
:10BCF0007047000000100240044A0029916901D0F9
:10BD0000014300E081439161704700000010024050
:10BD1000044A0029D16801D0014300E08143D16089
:10BD2000704700000010024030B51F494A6812F009
:10BD30000C031E4A03D0042B01D0082B21D0026033
:10BD40004A680F231A4C03EA1212A35C0268DA4015
:10BD500042604B68072505EA1323E35C22FA03F3EC
:10BD600083604B6805EAD323E35CDA40C26049682C
:10BD7000032303EA9131231F595CB2FBF1F1016106
:10BD800030BD4A684B6802F470124FF0020413F49D
:10BD9000803F04EB924202D04B689B0301D5054BD8
:10BDA00000E0024B5A43CAE70010024000127A003A
:10BDB0000500002000093D0070B50D4B00211C1549
:10BDC000DA141D1F1A60060601D52C6000E01C6005
:10BDD00000BF00BF00BF2A604006000E00BF00BFCA
:10BDE00000BF491CC9B20829ECD32A602C6070BD81
:10BDF000141401400CB500212648019100910268FD
:10BE000042F4803202604FF4A063026802F4003210
:10BE10000092019A521C0192009A12B9019A9A4218
:10BE2000F3D10268920333D5012100911A490A68BF
:10BE300042F010020A600A6822F003020A600A68EF
:10BE400042F002020A604168416041684160416815
:10BE500041F480614160416821F47C114160416896
:10BE600041F4E8114160016841F0807101600168AE
:10BE70008901FCD5416821F003014160416841F02E
:10BE8000020141604168C1F381010229FAD10CBD70
:10BE900000910CBD0010024000200240FFF760BA84
:10BEA0000F4810B5016841F00101016041680D4A79
:10BEB0001140416001680C4A11400160016821F4A1
:10BEC00080210160416821F4FE0141604FF41F01AF
:10BED0008160FFF78FFF05494FF00060086010BDDB
:10BEE000001002400000FFF8FFFFF6FE08ED00E042
:10BEF00000F08EBFC943018270470029018802D03B
:10BF000041F0010101E021F00101018070470029A9
:10BF100030F8441F02D041F4004101E0C1F30E01AA
:10BF2000018070474B4910B5884202D10121C414E9
:10BF300086E0B0F1804F09D0474988420DD10121F8
:10BF40000220FFF7CDFE0021022064E00121084617
:10BF5000FFF7C6FE002101205DE04049884206D17E
:10BF600001210420FFF7BCFE0021042053E03C49DE
:10BF7000884206D101210820FFF7B2FE00210820E7
:10BF800049E03849884206D101211020FFF7A8FE78
:10BF9000002110203FE03449884206D101212020B1
:10BFA000FFF79EFE0021202035E03049884202D173
:10BFB0000121441444E02E49884202D10121CC04DD
:10BFC0003EE02C49884202D101210C0538E02A4983
:10BFD000884202D101214C0532E02849884206D12D
:10BFE00001214020FFF77CFE0021402013E024497E
:10BFF000884206D101218020FFF772FE00218020B7
:10C0000009E0204988420AD1841501212046FFF722
:10C0100067FE00212046BDE81040FFF761BE1A49C7
:10C02000884202D101210C040AE01849884202D159
:10C0300001214C0404E0164988420AD101218C04F4
:10C040002046FFF765FE2046BDE810400021FFF7BF
:10C050005FBE10BD002C01400004004000080040FD
:10C06000000C00400010004000140040003401406B
:10C07000004C0140005001400054014000180040B5
:10C08000001C0040002000400040014000440140EE
:10C090000048014002460020138A92890B4202EABE
:10C0A000010202D0002A00D001207047002A8289B4
:10C0B00001D00A4300E08A438281704730B5028C88
:10C0C00022F001020284028C8388048B22F0020297
:10C0D00024F073050C882C430D8915434A882A43A4
:10C0E000114DA8420BD0114DA84208D0104DA842C6
:10C0F00005D0104DA84202D00F4DA8420DD122F01C
:10C1000008054A8923F440732A4322F004058A88EB
:10C110002A438D891D43CB892B4383800483C9889F
:10C120008186028430BD0000002C014000340140B3
:10C1300000400140004401400048014070B5028CBD
:10C1400022F010020284028C8488038B0D8823F471
:10C15000E6464FF6FF7303EA052535430E8922F0C4
:10C16000200203EA061616434A8803EA0212324303
:10C17000104EB04202D0104EB04215D122F08006CF
:10C180004A8924F4406403EA0212324322F0400652
:10C190008A8803EA021232438E8903EA860626431E
:10C1A000CC8903EA8404344384800583C9880187E9
:10C1B000028470BD002C01400034014070B5028C37
:10C1C00022F480720284028C8488838B0D8823F091
:10C1D00073031D4322F400730E894FF6FF7202EAC7
:10C1E00006261E434B8802EA03233343104EB04217
:10C1F00002D0104EB04215D123F400664B8924F4CE
:10C20000405402EA0323334323F480668B8802EA16
:10C21000032333438E8902EA06162643CC8902EAB9
:10C220000414344384808583C9888187038470BD66
:10C23000002C01400034014070B5028C22F4805281
:10C240000284048C8288838B0D8823F4E6464FF6A3
:10C25000FF7303EA0525354324F400560C8903EAED
:10C26000043434434E8803EA06362643094CA04280
:10C2700002D0094CA04205D122F480448A8903EA05
:10C280008212224382808583C988A0F840100684E8
:10C2900070BD0000002C01400034014030B5028820
:10C2A0001B4B1C4C98420DD0A0420BD0B0F1804FDC
:10C2B00008D0194DA84205D0184DA84202D0184DFB
:10C2C000A84203D122F070054A882A43154DA8429E
:10C2D00006D0154DA84203D022F44075CA882A43DF
:10C2E00002808A8882850A88028598420AD0A04204
:10C2F00008D00E4A904205D00D4A904202D00D4A15
:10C30000904201D1097A01860121818230BD00006D
:10C31000002C0140003401400004004000080040AF
:10C32000000C00400010004000140040004001409C
:10C33000004401400048014070B5134C40F22555BF
:10C340002946204601F0E5F801280CD1294620466F
:10C3500001F0B1F80D4D286828B1204601F066F9CA
:10C360002968C0B288470821204601F0CBF801288F
:10C3700008D10821204601F09BF82046BDE8704016
:10C3800001F054B970BD0000004C00404000002096
:10C3900070B5134C40F225552946204601F0B9F8F6
:10C3A00001280CD12946204601F085F80D4D28685A
:10C3B00028B1204601F03AF92968C0B2884708211F
:10C3C000204601F09FF8012808D10821204601F0FD
:10C3D0006FF82046BDE8704001F028B970BD00003C
:10C3E000005000404C00002010B501218CB00846E0
:10C3F000FFF75EFC104C2046FFF718F80F4800903E
:10C400000F480021CDE901011020CDE90301802072
:10C4100005904000069080000790202008900002C0
:10C42000CDE9090169462046FFF78AF80121204637
:10C43000FEF7F0FF0CB010BD080002404C24014094
:10C44000D4000020102803D2024931F810007047B0
:10C4500000207047D400002010B586B0FFF7C4FF5D
:10C4600001214802FFF748FC01210420FFF744FCAA
:10C4700001210820FFF740FC01211020FFF73CFCC0
:10C4800000248DF81740FF20ADF8140005A950488E
:10C49000FFF75AF90320ADF8140005A94D48FFF73E
:10C4A00053F93F20ADF8140005A94B48FFF74CF9AC
:10C4B00001208DF804008DF805004FF46020CDE9CF
:10C4C000020400941020454C8DF810006946204667
:10C4D000FEF77EFE0723012209212046FEF79CFE7F
:10C4E0000723022208212046FEF796FE0723032297
:10C4F0000F212046FEF790FE072304220E2120463E
:10C50000FEF78AFE0723052219462046FEF784FE21
:10C510000622072311462046FEF77EFE07231A4611
:10C5200005212046FEF778FE072308220421204635
:10C53000FEF772FE0723092203212046FEF76CFE58
:10C5400007230A2202212046FEF766FE07230B225C
:10C5500001212046FEF760FE07230C220021204621
:10C56000FEF75AFE0D22072311462046FEF754FE21
:10C5700007230E220C212046FEF74EFE07230F2232
:10C580000B212046FEF748FE072310220A212046F1
:10C59000FEF742FE01212046FEF702FE0121204661
:10C5A000FEF7F4FD2046FEF771FE2046FEF709FE79
:10C5B0000028FAD12046FEF778FE2046FEF7FAFD65
:10C5C0000028FAD101212046FEF765FE06B010BD15
:10C5D00000080140000C014000100140002401400F
:10C5E00008B501212020FFF787FB0A48016821F0E8
:10C5F000800101608020ADF8000002208DF802006B
:10C6000010208DF80300034869460C38FFF79CF8AA
:10C6100008BD00000C1401401CB54FF48063994222
:10C6200013D29A4211D21E238DF800308DF80110DA
:10C63000090A8DF80210110A8DF803208DF80410F4
:10C640006B460322072100F07DFE1CBD1CB50129AD
:10C6500022D806228DF80020002211B101290BD02A
:10C6600012E08DF801208DF80220FF218DF80310D3
:10C6700003218DF8041007E08DF801208DF80220C9
:10C680008DF803208DF804206B460322072100F06B
:10C6900059FE1E2000F0A2FE1CBD00001CB501F2D8
:10C6A000FF3240F2FF739A421BD2002902DC00BF26
:10C6B000C1F100014FF0200289B28DF800208DF801
:10C6C00001104FEA11218DF8021003DA41F0040144
:10C6D0008DF802106B464FF003024FF0050100F099
:10C6E00031FE1CBDF8B5494C2088400403D50E210D
:10C6F0000320FFF715F82088800403D50D210320BF
:10C70000FFF70EF82088000403D50F210320FFF760
:10C7100007F82088C00403D50C210320FFF700F898
:10C7200004258DF803502078394E00060AD5802064
:10C73000ADF8000069463046FFF706F807210020F3
:10C74000FEF7EEFF207840060AD54020ADF8000045
:10C7500069463046FEF7F8FF06210020FEF7E0FFAD
:10C76000207880060AD52020ADF8000069463046C2
:10C77000FEF7EAFF05210020FEF7D2FF2078C00671
:10C780000AD51020ADF8000069463046FEF7DCFF00
:10C7900004210020FEF7C4FF20781E4E00070AD5B2
:10C7A0000820ADF8000069463046FEF7CDFF0321B2
:10C7B0000220FEF7B5FF2078400709D5ADF80050FC
:10C7C00069463046FEF7C0FF02210846FEF7A8FF83
:10C7D000207880070AD50220ADF80000694630466F
:10C7E000FEF7B2FF01210220FEF79AFF2078C00772
:10C7F0000AD00120ADF8000069463046FEF7A4FFDC
:10C8000000210220FEF78CFFF8BD0000640000202C
:10C81000000801400010014007484FF480410160CA
:10C8200049000160054801210160022101600821E1
:10C830000160102101607047100801401014014090
:10C8400008B501216520FFF757FA01211048FEF7CE
:10C85000CDFFFFF7E1FF10208DF8030003208DF8D6
:10C8600002008003ADF8000069460A48FEF76CFF3D
:10C870001B20ADF8000069460748FEF765FF4FF43E
:10C880004050ADF8000069460448FEF75DFF08BD62
:10C89000000430000008014000140140001801406D
:10C8A000FFF7CEBF38B501212020FFF725FA4FF45E
:10C8B0007040ADF8000048208DF8030069460D482F
:10C8C000FEF742FF0C4C04212046FEF7BBFF01217E
:10C8D0004020FFF711FA0420ADF8000002208DF887
:10C8E000020010208DF8030069462046FEF72CFF59
:10C8F00038BD0000001401400018014000B50020C0
:10C9000000F008F8024800210170417000BD0000ED
:10C910006C000020F0B5074640210320FFF7A0F887
:10C9200000244FF4AF7600210520FFF799F8214647
:10C930000620FFF795F800253846FFF7BFF8304688
:10C94000FEF728FE6D1CEDB2102DF5D3641CE4B289
:10C95000402CE8D3F0BD000010B5FFF7D5F83D4CF2
:10C96000402363616420FEF708FE23616420FEF724
:10C9700004FE00210846FFF773F800210120FFF7AD
:10C980006FF87B210220FFF76BF800210320FFF7EF
:10C9900067F800210420FFF763F800210520FFF766
:10C9A0005FF800210620FFF75BF800210720FFF762
:10C9B00057F800210820FFF753F800210920FFF75E
:10C9C0004FF800210A20FFF74BF800210B20FFF75A
:10C9D00047F800210C20FFF743F800210D20FFF756
:10C9E0003FF800210E20FFF73BF800210F20FFF752
:10C9F00037F800211320FFF733F800211420FFF748
:10CA00002FF800211520FFF72BF800211620FFF743
:10CA100027F800211720FFF723F800211820FFF73F
:10CA20001FF82C211020FFF71BF824211220FFF7FC
:10CA300017F8F8211120FFF713F802210120FFF762
:10CA40000FF8002000F008F8FFF758FF8020206161
:10CA500010BD00000010014008B1FB2100E0F821EA
:10CA60001120FEF7FDBF00002DE9F8434FF43041DF
:10CA70004FF00060FFF712F94FF4C060FFF704F9C0
:10CA80005C484FF47A7101250068B0FBF1F0B0F119
:10CA9000807F7DD220F07F414FF0E020491E416130
:10CAA000554AF02182F8141D002686610727076188
:10CAB0008DF80160514C8DF802608DF8035020789C
:10CAC0004FF00608C00704D08DF800806846FFF7D5
:10CAD000A9F82078800704D58DF800706846FFF724
:10CAE000A1F82078400705D508208DF80000684699
:10CAF000FFF798F82078000705D509208DF8000089
:10CB00006846FFF78FF82078C00605D50A208DF813
:10CB100000006846FFF786F8208810F4787F05D07B
:10CB200017208DF800006846FFF77CF8208810F485
:10CB30007C4F05D028208DF800006846FFF772F87A
:10CB40001C208DF800008DF801508DF802608DF8E2
:10CB500003506846FFF766F81D208DF8000002209C
:10CB60008DF801008DF802608DF803506846FFF7DC
:10CB700059F82348007870B125208DF80000042072
:10CB80008DF801008DF802608DF80350684600E0D2
:10CB90002FE0FFF747F81B48007860B134208DF88C
:10CBA000000005208DF801008DF802608DF803501B
:10CBB0006846FFF737F81448007860B135208DF8E3
:10CBC000000003208DF801008DF802608DF80350FD
:10CBD0006846FFF727F80C208DF800008DF80180DB
:10CBE0008DF802608DF803506846FFF71BF8BDE82A
:10CBF000F883FEE7180000200FE000E0640000204A
:10CC00002C00002038000020440000202DE9FF41C6
:10CC100001210820FFF770F801210420FFF754F8E4
:10CC20002248402101608021016085150560411581
:10CC3000016018208DF80F0003208DF80E004FF4CE
:10CC40007070ADF80C00194803A91038FEF77CFD90
:10CC5000174F3846FFF766F9002445F6C050022604
:10CC6000ADF80400ADF80060ADF80240ADF8064044
:10CC70008DF8084069463846FFF710FB0D486021E3
:10CC8000018001214180848042F6E061C1800681FB
:10CC900044818581C48101213846FFF72EF90121A5
:10CCA0003846FFF734F9BDE8FF810000100C014061
:10CCB00000080040A802002010B5FFF7F1F8FFF7C8
:10CCC000D3FEFFF7EFFDFFF7C7FB00F0C7F9FFF753
:10CCD00043FEFFF7E5FDFFF799FFFFF703FD00F0C7
:10CCE00005F8BDE81040FFF77BBC00002DE9F041DE
:10CCF000444C88B0207830B9607820B9A07810B959
:10CD0000E07800287AD001210220FEF7DDFF3E4FB7
:10CD10003846FFF707F947200025ADF810004FF619
:10CD2000FF76ADF81460ADF81250ADF816508DF8DE
:10CD3000185004A93846FFF7B1FAADF80850334D42
:10CD40002020ADF8000028684FF48038404500D31B
:10CD50003046ADF80600207818B169463846FFF72E
:10CD6000ADF96868404500D33046ADF806006078FC
:10CD700018B169463846FFF7E1F9A868404500D385
:10CD80003046ADF80600A07818B169463846FFF77E
:10CD900015FAE868404500D20646ADF80660E0782E
:10CDA00018B169463846FFF747FA1F213846FFF7A2
:10CDB000A1F8207820B1012202213846FFF776F948
:10CDC000607820B1012204213846FFF76FF9A0787E
:10CDD00020B1012208213846FFF768F9E07820B138
:10CDE000012210213846FFF761F901221146384629
:10CDF000FFF75CF901213846FFF77FF808B0BDE87E
:10CE0000F081000050000020000400409802002043
:10CE10002DE9F047734C01212046FFF73BF94FF60F
:10CE2000FF7648B101212046FFF764F86E4801689B
:10CE300031440160BDE8F0870221A2462046FFF799
:10CE400029F9DFF8A481002708F1040808F1180483
:10CE500008F10809A4F1080560B302215046FFF764
:10CE600049F8DFF880A120880AF1340A70B92888CF
:10CE7000C0B9B8F800002880B9F8000020805B48ED
:10CE8000016809B100208847208840B1BAF8001035
:10CE90003144AAF800102088401E2080CAE7288864
:10CEA0000028C7D0BAF800102A881144AAF8001048
:10CEB0002F80BFE704215046FFF7ECF860B3042150
:10CEC0005046FFF717F8DFF81CA160880AF1380A0E
:10CED00070B96888C0B9B8F802006880B9F8020073
:10CEE00060804348016809B101208847608840B1EB
:10CEF000BAF800103144AAF800106088401E608023
:10CF000098E76888002895D0BAF800106A8811441C
:10CF1000AAF800106F808DE708215046FFF7BAF895
:10CF200060B308215046FEF7E5FFDFF8B8A0A088FF
:10CF30000AF13C0A70B9A888C0B9B8F80400A88002
:10CF4000B9F80400A0802B48016809B10220884785
:10CF5000A08840B1BAF800103144AAF80010A088A7
:10CF6000401EA08066E7A888002897D0BAF8001075
:10CF7000AA881144AAF80010AF805BE71021504640
:10CF8000FFF788F8002889D010215046FEF7B2FF3D
:10CF9000DFF850A0E0880AF1400A70B9E888C0B90B
:10CFA000B8F80600E880B9F80600E0801248016889
:10CFB00009B103208847E08840B1BAF80010314435
:10CFC000AAF80010E088401EE08033E7E8880028D7
:10CFD00096D0BAF80010EA881144AAF80010EF8041
:10CFE00028E70000000400407400002054000020E6
:10CFF000580000205C0000206000002010B50121D6
:10D000008CB00846FEF754FE124C2046FEF70EFA8E
:10D0100011480021CDE900011020CDE90201802056
:10D02000CDE904108001CDE90810069107910A911D
:10D0300069462046FEF784FA012202212046FEF7C7
:10D0400077FA054801228021001F00F053FA0CB046
:10D0500010BD00001C000240044800402DE9F04FC4
:10D0600087B0012144F20500FEF746FE4FF400753B
:10D07000ADF800500326A34C8DF802604FF018095C
:10D080008DF8039069462046FEF75EFB2715ADF844
:10D0900000704FF0040A8DF803A069462046FEF7A1
:10D0A00053FB99480024DFF8648200680190ADF8D2
:10D0B0000C400C20ADF80840ADF80E00ADF814405F
:10D0C000ADF81850ADF80A40ADF81040ADF8164074
:10D0D000ADF81A4005A9404600F0F3F901A9404611
:10D0E00000F04EFA0121404600F0FAF98848007835
:10D0F00028B1012240F22551404600F029FA0121D1
:10D10000C804FEF7E1FD01211120FEF7F5FDADF8A1
:10D110000070BB467F4F8DF80260B0468DF80390DB
:10D1200069463846FEF710FBF814ADF80000564685
:10D130008DF803A069463846FEF706FB7648DFF80F
:10D14000DCA10C2700680190ADF80840ADF80C4058
:10D15000ADF81440ADF81850ADF80A40ADF81040E5
:10D16000ADF80E70ADF81640ADF81A4005A950465E
:10D1700000F0A7F901A9504600F002FA012150463B
:10D1800000F0AEF96648007828B1012240F225513E
:10D19000504600F0DDF901210805FEF795FD01215B
:10D1A0003120FEF7A9FD4FF48050ADF800008DF856
:10D1B0000280C246C8468DF8039069465548FEF77E
:10D1C000C3FAADF800608DF8036069465548FEF774
:10D1D000BBFA5548DFF8549105A900680190ADF8F5
:10D1E0000840ADF80C40ADF81440ADF81850ADF85B
:10D1F0000A40ADF81040ADF80E70ADF81640ADF82D
:10D200001A40484600F05DF94021484600F050F9C8
:10D2100001A9484600F0B4F90121484600F060F940
:10D220004348007828B1012240F22551484600F0D9
:10D230008FF901210820FEF75FFD01214020FEF754
:10D240005BFD01218804FEF73FFDADF800B08DF8CD
:10D2500002A08DF80380DFF8DC8069464046FEF7C7
:10D2600073FA4FF40060ADF800008DF80360694672
:10D270004046FEF769FA3048016821F40041016038
:10D28000016821F4804101604FF48040DFF8A880FC
:10D29000ADF800001026A8F10C088DF8036069466F
:10D2A0004046FEF751FAF002ADF800008DF8036039
:10D2B00069464046FEF748FA20480190ADF808401C
:10D2C000ADF81440ADF81850ADF80A40ADF80C4078
:10D2D000ADF81040ADF81640ADF81A40184CADF856
:10D2E0000E7005A9204600F0ECF801A9204600F0D8
:10D2F00047F90121204600F0F3F8FFF77FFE07B061
:10D30000BDE8F08F000801403000002000380140E7
:10D310002C000020001001403C000020004C004088
:10D320003800002000140140480000200050004058
:10D3300044000020000C01400C18014040420F0046
:10D34000004800402DE9F04F224D2E786C78771E72
:10D35000BC423CD00EB9132C39D0AB461E4EC4EBA8
:10D36000C40505EB450909EB0605FF276F70AF7093
:10D37000E870297147186A713A44B246D7B2C4EBD3
:10D38000C4060520002206EB46065644891E0DE021
:10D3900006EB000813F802C088F801C013F802C0B9
:10D3A000401C6744521C80B2FFB2D2B28A42EFDB0B
:10D3B0000544FB436B70401C0AF80900641CE0B292
:10D3C0008BF80100142802D100208BF80100BDE881
:10D3D000F08F00006F000020F40000204FF4FA529C
:10D3E00006E00021401E00BF491C89B29142FAD3D9
:10D3F0000028F6D1704706E00021401E00BF491CFE
:10D4000089B20829FAD30028F6D1704770B5134CB9
:10D4100040F225552946204600F07BF801280CD122
:10D420002946204600F047F80D4D286828B12046CF
:10D4300000F0FCF82968C0B288470821204600F0B7
:10D4400061F8012808D10821204600F031F8204673
:10D45000BDE8704000F0EAB870BD0000003801403F
:10D460003400002070B5114C40F225552946204665
:10D4700000F04FF8012809D12946204600F01BF89A
:10D48000204600F0D3F8C0B2FDF714FF0821204673
:10D4900000F038F8012808D10821204600F008F8EB
:10D4A0002046BDE8704000F0C1B870BD00480040A3
:10D4B000C943018070470A0A01219140C943018094
:10D4C000704710B5038A4FF2FF0213400A884C8858
:10D4D00022438C88C9880C4322431A43028210BD20
:10D4E0000029818902D041F4005101E021F400516A
:10D4F00081817047002A828A01D00A4300E08A4372
:10D50000828270470246002012880A4200D0012021
:10D51000704730B501F01F0201240025C1F342130A
:10D5200004FA02F2012B0FD0022B0FD0838A4FEAAC
:10D5300011210088134204FA01F400EA040001D02A
:10D5400000B10125284630BD8389F0E7038AEEE764
:10D5500010B5C1F3421301F01F040121A140012BBA
:10D5600007D0022B07D01430002A026805D00A43E6
:10D5700004E00C30F8E71030F6E78A43026010BD93
:10D5800030B50446008A85B00D464CF6FF71084060
:10D59000E98801432182A1894EF6F3100140A88851
:10D5A0002A8910436A890A431043A081A08A4FF652
:10D5B000FF410840A9890143A1826846FEF7B4FBF8
:10D5C0001948844201D1039800E00298A189090416
:10D5D00000EBC00101EB0010296801D5490000E013
:10D5E0008900B0FBF1F06422B0FBF2F109010B09F4
:10D5F0006FF018056B4300EB8300A3891D044FF007
:10D60000320306D503EBC000B0FBF2F000F00700D8
:10D6100005E003EB0010B0FBF2F000F00F00084350
:10D62000208105B030BD0000003801408088C0F383
:10D630000800704770B5FEF707F94FF4B9744FF45E
:10D64000AF75092827D2DFE800F01C21171C1C0544
:10D65000171C2100FEF7D8FA2046FEF77DFA4FF49A
:10D660007A70FFF7BBFE2846FEF7B8FABDE87040B7
:10D670004FF4FA70FFF7B2BE2846BDE87040FEF7DF
:10D68000ADBA2046BDE87040FEF77EBA2846BDE838
:10D690007040FEF78BBA70BD02E008C8121F08C1C7
:10D6A000002AFAD170477047002001E001C1121F23
:10D6B000002AFBD17047FEF7C7F9FEF75AFAFDF7CB
:10D6C000EDFFFFF7B7FFFCE7E8D6000800000020F9
:10D6D000D400000098D60008BCD70008D400002071
:10D6E000E4050000A8D600080002040608000000B7
:10D6F00000010203040102030406070809000000F8
:10D7000000A24A040000000000000000010203041F
:10D71000060708090000000000C201000000000028
:10D7200000000000004B00000000000000000000AE
:10D7300000C2010000000000000000000000000026
:10D7400000000000000000000000000000000000D9
:10D7500000000000000000000000000000000000C9
:10D7600000000000000000000000000000000000B9
:10D7700000000000000000000000000000000000A9
:10D780000000000000000000000000000000000099
:10D790002003000000000000000000000000000066
:10D7A0000000000000000000000000000000000079
:0CD7B0000000000000000000000000006D
:040000050800B1310D
:00000001FF
