:020000040800F2
:10B00000B806002045B100084DB100084FB1000856
:10B0100051B1000853B1000855B10008000000000C
:10B0200000000000000000000000000057B1000810
:10B0300059B10008000000005BB1000829BD0008FC
:10B040005FB100085FB100085FB100085FB10008A0
:10B050005FB100085FB10008ABB50008FFB500089C
:10B0600005B600080BB6000811B60008B5B3000815
:10B07000CDB300085FB100085FB100085FB1000800
:10B080005FB100085FB100085FB100085FB1000860
:10B090005FB100085FB100085FB1000817B6000893
:10B0A0005FB100085FB100085FB100085FB1000840
:10B0B0005FB100087DBD00085FB100085FB1000806
:10B0C0005FB100085FB100085FB100085FB1000820
:10B0D0005FB1000849D200085FB10008A1D20008A2
:10B0E000B1B500085FB100085FB100085FB10008AA
:10B0F0005FB100085FB100085FB100085FB10008F0
:10B100005FB100085FB100085FB100085FB10008DF
:10B11000C5C100081DC200085FB100085FB100088A
:10B120005FB100085FB100085FB100085FB10008BF
:10B13000DFF80CD000F018F8004800470DD50008E3
:10B14000B80600200648804706480047FEE7FEE7AD
:10B15000FEE7FEE7FEE7FEE7FEE7FEE7FEE7FEE7C7
:10B160002DBD000831B10008064C074D06E0E0682F
:10B1700040F0010394E8070098471034AC42F6D33E
:10B18000FFF7DAFF3CD500085CD50008002981688C
:10B1900002D041F0010101E021F00101816070471E
:10B1A0000029816802D041F4807101E021F48071AE
:10B1B00081607047014600208968490700D5012059
:10B1C0007047014600208968090700D501207047B3
:10B1D00010B542680E4B0C791A400B6842EA042203
:10B1E0001343436083680B4A1340D1E90242224370
:10B1F0004C7943EA44031A438260C26A097C22F410
:10B200007002491EC9B242EA0151C16210BD00007C
:10B21000FFFEF0FFFDF7F1FF70B5072409290AD9F9
:10B22000C568A1F10A0606EB4606B440A543B34043
:10B230001D43C56007E0056901EB4106B440A54325
:10B24000B3401D4305611F23072A09D2446B521ED8
:10B2500002EB820293409C4391400C43446370BDD7
:10B260000D2A09D2046BD21F02EB820293409C4349
:10B2700091400C43046370BDC46A0D3A02EB820234
:10B2800093409C4391400C43C46270BD816841F07F
:10B290000801816070470029816802D041F4A00153
:10B2A00001E021F4A00181607047816841F0040150
:10B2B0008160704770B5234900220B460D79032445
:10B2C000DB78052D09D2DFE805F003090E121D0019
:10B2D000FF2801D1012004E0CA7070BDFF2808D109
:10B2E0000220087170BD20B9CA700C7170BD0328AE
:10B2F00001D00A71F0E7DB1C8C71CB70042008715F
:10B300004A7170BD8E790F4D4C793435761EB4423A
:10B3100006DA28551844C87004F101044C7170BD58
:10B32000FDD16FEA0303DBB2CB70834206D12878EC
:10B3300020B96878C871086B401C0863CA704A71EC
:10B340000A7170BD9800002010B5C0B200F0C0FFB7
:10B35000B0F57A7F01DC002010BD012010BD000097
:10B3600030B51048427801788A421AD00E4A1368E4
:10B3700043F480431360C1EBC10202EB42040B4B68
:10B380000B4AE5186D1C95621B5D1362D36943F08F
:10B390000103D361491CC9B20170142901D10021F4
:10B3A000017030BD6F0000200C180140F400002037
:10B3B0000000024010B5022000F0AAF8002804D0D6
:10B3C000BDE81040012000F019B810BD094810B5C3
:10B3D000016889060DD510214160C16921F0010184
:10B3E000C161642001F025FF0348016821F4804118
:10B3F000016010BD000002400C180140C10002D5E0
:10B4000002490860704702494860704704040240DE
:10B41000000002400029016802D041F0010102E071
:10B420004FF6FE72114001607047000001684FF650
:10B43000FE72114001600021016041608160C160C5
:10B440003149314A0839904203D1486840F00F0031
:10B4500006E02D4A1432904204D1486840F0F000D2
:10B4600048607047284A2832904203D1486840F427
:10B470007060F5E7244A3C32904203D1486840F4BA
:10B480007040EDE7204A5032904203D1486840F4C2
:10B490007020E5E71C4A6432904203D1486840F4CA
:10B4A0007000DDE7184A7832904203D1486840F0D6
:10B4B0007060D5E7154A111F904203D1086840F02B
:10B4C0000F0006E0114A1432904204D1086840F09F
:10B4D000F000086070470D4A2832904203D1086896
:10B4E00040F47060F5E7094A3C32904203D10868A5
:10B4F00040F47040EDE7054A50329042EAD10868C6
:10B5000040F47020E5E70000080002400804024013
:10B5100001460020CA0001D5034A00E0034A126830
:10B520000A4200D00120704700040240000002409F
:10B53000002A026801D00A4300E08A430260704793
:10B5400030B5036847F6F07293430C6A8A68224369
:10B55000D1E904452C4322438C692243CC69224320
:10B560004C6A22438C6A22431A430260CA684260D2
:10B570000A6882604968C16030BD4FF4FA5206E043
:10B58000401E80B20021491C89B29142FBD30028A1
:10B59000F6D1704706E0401E80B20021491C89B2F6
:10B5A0000829FBD30028F6D17047012000F068B8C5
:10B5B00010B54FF48064204600F052F8C8B964001A
:10B5C000204600F04DF8A0B96400204600F048F88D
:10B5D00078B96400204600F043F850B96400204672
:10B5E00000F03EF828B96400204600F039F8002841
:10B5F00004D02046BDE8104000F042B810BD022043
:10B6000000F03EB8042000F03BB8082000F038B845
:10B61000102000F035B810B5202000F021F808B156
:10B62000202018E0402000F01BF808B1402012E074
:10B63000802000F015F808B180200CE04FF48074F1
:10B64000204600F00DF828B96400204600F008F804
:10B65000002804D02046BDE8104000F011B810BD0D
:10B66000064A014600201268044B0A4014331B6846
:10B670000B4202D0002A00D0012070470004014094
:10B6800010B504460348016809B1204688470248BE
:10B69000046010BD680000201404014010B58A0742
:10B6A00021F003040649130F21440F228C689A40AD
:10B6B00094438C608A68984002438A6010BD000001
:10B6C00000000140F0B5CA78002502F00F03D20651
:10B6D00001D58A7813430A784FF00F0E12F0FF0F4E
:10B6E0004FF001021CD004680F8802FA05F63740BB
:10B6F000B74211D14FEA850C0EFA0CF724EA07077E
:10B7000003FA0CF43C43CF78282F02D0482F02D004
:10B7100002E0466100E006616D1C082DE4D3046080
:10B720000C88FF2C1ED944685FF0000606F108075C
:10B7300002FA07F50F882F40AF420FD14FEA860C6F
:10B740000EFA0CF7BC4303FA0CF73C43CF78282FD2
:10B7500000D14561CF78482F00D10561761C082EB5
:10B76000E4D34460F0BD0000F0B5144C002801DAC9
:10B77000E36900E06368420D120185B2C0F301572E
:10B780009540C0F30346032F05D0C2020AD5032219
:10B79000B240934307E023F07062636823F0706364
:10B7A000636002E0AB4343F0706201B12A430028BA
:10B7B00001DAE261F0BD6260F0BD0000000001400E
:10B7C0004161704710B50620FFF7BEFD60B9092042
:10B7D000FFF7BAFD40B90720FFF7B6FD20B90A20F0
:10B7E000FFF7B2FD002816D00620FFF7ADFD0128B7
:10B7F0000BD10920FFF7A8FD38B90720FFF7A4FDFA
:10B8000018B90A20FFF7A0FD20B10620FFF79CFD24
:10B8100010B10EE0012010BD0920FFF795FD0128B1
:10B8200007D10720FFF790FD18B90A20FFF78CFD1C
:10B8300020B10620FFF788FD10B10EE0022010BDF8
:10B840000920FFF781FD40B90720FFF77DFD0128A2
:10B8500003D10A20FFF778FD20B10620FFF774FD21
:10B8600010B10EE0032010BD0920FFF76DFD40B9B7
:10B870000720FFF769FD20B90A20FFF765FD0128C1
:10B8800005D00620FFF760FD012802D00EE004205D
:10B8900010BD0920FFF758FD012807D10720FFF749
:10B8A00053FD18B90A20FFF74FFD20B10620FFF71E
:10B8B0004BFD10B10FE0052010BD0920FFF744FD3E
:10B8C000012808D10720FFF73FFD20B90A20FFF724
:10B8D0003BFD012804D00620FFF736FD10B10FE034
:10B8E000062010BD0920FFF72FFD48B90720FFF7FC
:10B8F0002BFD012804D10A20FFF726FD012805D0E1
:10B900000620FFF721FD012802D00EE0072010BD20
:10B910000920FFF719FD40B90720FFF715FD0128A1
:10B9200003D10A20FFF710FD10B14FF0FF3010BD1A
:10B93000082010BD70B5154A0E464FF480740146BC
:10B94000146000BF00BF00BF4FF40070106000BF64
:10B9500000BF00BF4FF4006010604310136000BFD1
:10B9600000BF00BF094D2D1F286000BF00BF00BFF2
:10B97000084600F067F900BF00BF00BF304600F086
:10B9800061F900BF00BF00BF2C6070BD14140140FE
:10B9900030B511494FF480750D6000BF00BF00BF86
:10B9A0000D4C4FF40072241F226000BF00BF00BF87
:10B9B0004FF400620A6053100B6000BF00BF00BF6D
:10B9C000226000BF00BF00BF00F03CF900BF00BF15
:10B9D00000BF256030BD00001414014008B50121EE
:10B9E000102000F0CFF80121202000F0CBF80D4905
:10B9F0004FF48070086010208DF8030003208DF84C
:10BA00000200C020ADF8000069460748FFF75AFE63
:10BA10004FF47060ADF80000024869461038FFF737
:10BA200051FE08BD101401400010014010B504463D
:10BA30000F30404201B2052000F04EFD21B2BDE8BA
:10BA40001040062000F048BD10B504460F3001B28A
:10BA5000052000F041FD604201B2062000F03CFDEF
:10BA600001490120087010BD00000020404210B5BF
:10BA700001B20C46052000F02FFD2146062000F003
:10BA80002BFD02490020087010BD000000000020BE
:10BA900010B501B20C46052000F01EFD214606201F
:10BAA00000F01AFD01490020087010BD00000020C0
:10BAB00070B50F23C47801780122F4B1144C2468C6
:10BAC000457804F4E064C4F5E064240AC4F1040693
:10BAD000E3408478B5401C402C4301F1E021230170
:10BAE00081F80034007800F01F018A40400980008E
:10BAF00000F1E020C0F8002170BD01F01F0082407D
:10BB00004809800000F1E020C0F8802170BD0000ED
:10BB10000CED00E00249084302490860704700004C
:10BB20000000FA050CED00E0024A11400143024812
:10BB30000160704780FFFF1F08ED00E0044A002904
:10BB4000516901D0014300E0814351617047000019
:10BB500000100240044A0029D16901D0014300E0ED
:10BB60008143D1617047000000100240044A00295F
:10BB7000116901D0014300E0814311617047000069
:10BB800000100240044A0029916901D0014300E0FD
:10BB9000814391617047000000100240044A00296F
:10BBA000D16801D0014300E08143D16070470000BB
:10BBB0000010024030B51F494A6812F00C031E4ABB
:10BBC00003D0042B01D0082B21D002604A680F2338
:10BBD0001A4C03EA1212A35C0268DA4042604B6816
:10BBE000072505EA1323E35C22FA03F383604B681D
:10BBF00005EAD323E35CDA40C2604968032303EA21
:10BC00009131231F595CB2FBF1F1016130BD4A68EB
:10BC10004B6802F470124FF0020413F4803F04EBFF
:10BC2000924202D04B689B0301D5054B00E0024BCA
:10BC30005A43CAE70010024000127A0005000020B3
:10BC400000093D0070B50D4B00211C15DA141D1FB5
:10BC50001A60060601D52C6000E01C6000BF00BF22
:10BC600000BF2A604006000E00BF00BF00BF491C95
:10BC7000C9B20829ECD32A602C6070BD14140140AD
:10BC80000CB50021264801910091026842F48032EF
:10BC900002604FF4A063026802F400320092019A3D
:10BCA000521C0192009A12B9019A9A42F3D1026889
:10BCB000920333D5012100911A490A6842F010021B
:10BCC0000A600A6822F003020A600A6842F002026F
:10BCD0000A604168416041684160416841F48061A7
:10BCE0004160416821F47C114160416841F4E811F0
:10BCF0004160016841F08071016001688901FCD5F3
:10BD0000416821F003014160416841F00201416056
:10BD10004168C1F381010229FAD10CBD00910CBD2B
:10BD20000010024000200240FFF71ABB0F4810B578
:10BD3000016841F00101016041680D4A1140416014
:10BD400001680C4A11400160016821F48021016002
:10BD5000416821F4FE0141604FF41F018160FFF74B
:10BD60008FFF05494FF00060086010BD00100240D1
:10BD70000000FFF8FFFFF6FE08ED00E000F066BFF0
:10BD8000C943018270470029018802D041F00101B6
:10BD900001E021F0010101807047002930F8441FC3
:10BDA00002D041F4004101E0C1F30E01018070476F
:10BDB0004B4910B5884202D10121C41486E0B0F18C
:10BDC000804F09D0474988420DD101210220FFF759
:10BDD000CDFE0021022064E001210846FFF7C6FEE7
:10BDE000002101205DE04049884206D10121042064
:10BDF000FFF7BCFE0021042053E03C49884206D1F5
:10BE000001210820FFF7B2FE0021082049E038494F
:10BE1000884206D101211020FFF7A8FE0021102042
:10BE20003FE03449884206D101212020FFF79EFEE1
:10BE30000021202035E03049884202D101214414FC
:10BE400044E02E49884202D10121CC043EE02C4935
:10BE5000884202D101210C0538E02A49884202D1EA
:10BE600001214C0532E02849884206D101214020B9
:10BE7000FFF77CFE0021402013E02449884206D1D0
:10BE800001218020FFF772FE0021802009E0204977
:10BE900088420AD1841501212046FFF767FE002160
:10BEA0002046BDE81040FFF761BE1A49884202D122
:10BEB00001210C040AE01849884202D101214C04F6
:10BEC00004E0164988420AD101218C042046FFF77C
:10BED00065FE2046BDE810400021FFF75FBE10BDA3
:10BEE000002C01400004004000080040000C00400D
:10BEF000001000400014004000340140004C01409C
:10BF0000005001400054014000180040001C004057
:10BF10000020004000400140004401400048014032
:10BF200002460020138A92890B4202EA010202D0E3
:10BF3000002A00D001207047002A828901D00A43DC
:10BF400000E08A438281704730B5028C22F0010202
:10BF50000284028C8388048B22F0020224F0730591
:10BF60000C882C430D8915434A882A43114DA84259
:10BF70000BD0114DA84208D0104DA84205D0104D4D
:10BF8000A84202D00F4DA8420DD122F008054A89DF
:10BF900023F440732A4322F004058A882A438D89BA
:10BFA0001D43CB892B4383800483C9888186028407
:10BFB00030BD0000002C0140003401400040014031
:10BFC000004401400048014070B5028C22F010028C
:10BFD0000284028C8488038B0D8823F4E6464FF696
:10BFE000FF7303EA052535430E8922F0200203EA98
:10BFF000061616434A8803EA02123243104EB04234
:10C0000002D0104EB04215D122F080064A8924F4A5
:10C01000406403EA0212324322F040068A8803EAAF
:10C02000021232438E8903EA86062643CC8903EA4C
:10C030008404344384800583C9880187028470BDE9
:10C04000002C01400034014070B5028C22F4807253
:10C050000284028C8488838B0D8823F073031D4334
:10C0600022F400730E894FF6FF7202EA06261E4381
:10C070004B8802EA03233343104EB04202D0104EE5
:10C08000B04215D123F400664B8924F4405402EAEF
:10C090000323334323F480668B8802EA032333436C
:10C0A0008E8902EA06162643CC8902EA0414344338
:10C0B00084808583C9888187038470BD002C0140FA
:10C0C0000034014070B5028C22F480520284048C4A
:10C0D0008288838B0D8823F4E6464FF6FF7303EACC
:10C0E0000525354324F400560C8903EA043434430F
:10C0F0004E8803EA06362643094CA04202D0094C7A
:10C10000A04205D122F480448A8903EA82122243A4
:10C1100082808583C988A0F84010068470BD000025
:10C12000002C01400034014030B502881B4B1C4CF0
:10C1300098420DD0A0420BD0B0F1804F08D0194DDD
:10C14000A84205D0184DA84202D0184DA84203D1EC
:10C1500022F070054A882A43154DA84206D0154D95
:10C16000A84203D022F44075CA882A4302808A88F4
:10C1700082850A88028598420AD0A04208D00E4AD9
:10C18000904205D00D4A904202D00D4A904201D112
:10C19000097A01860121818230BD0000002C014016
:10C1A000003401400004004000080040000C004042
:10C1B00000100040001400400040014000440140D5
:10C1C0000048014070B5134C40F2255529462046E1
:10C1D00001F0BDF801280CD12946204601F089F86C
:10C1E0000D4D286828B1204601F03EF92968C0B2FB
:10C1F00088470821204601F0A3F8012808D108212A
:10C20000204601F073F82046BDE8704001F02CB9DB
:10C2100070BD0000004C00404000002070B5134C81
:10C2200040F225552946204601F091F801280CD10D
:10C230002946204601F05DF80D4D286828B12046BA
:10C2400001F012F92968C0B288470821204601F0A0
:10C2500077F8012808D10821204601F047F8204648
:10C26000BDE8704001F000B970BD00000050004012
:10C270004C00002010B501218CB00846FFF75EFC91
:10C28000104C2046FFF7D2F80F4800900F480021CD
:10C29000CDE901011020CDE9030180200590400087
:10C2A000069080000790202008900002CDE9090147
:10C2B00069462046FFF744F901212046FFF7AAF816
:10C2C0000CB010BD080002404C240140D4000020F6
:10C2D000102803D2024931F810007047002070473F
:10C2E000D400002010B586B0FFF7C4FF012148023A
:10C2F000FFF748FC01210420FFF744FC012108203E
:10C30000FFF740FC01211020FFF73CFC00248DF8D2
:10C310001740FF20ADF8140005A95048FFF7D2F9E7
:10C320000320ADF8140005A94D48FFF7CBF93F20D5
:10C33000ADF8140005A94B48FFF7C4F901208DF8AA
:10C3400004008DF805004FF46020CDE9020400944C
:10C350001020454C8DF8100069462046FEF738FF46
:10C360000723012209212046FEF756FF0723022258
:10C3700008212046FEF750FF072303220F21204605
:10C38000FEF74AFF072304220E212046FEF744FF52
:10C390000723052219462046FEF73EFF0622072303
:10C3A00011462046FEF738FF07231A46052120468E
:10C3B000FEF732FF0723082204212046FEF72CFF58
:10C3C0000723092203212046FEF726FF07230A221E
:10C3D00002212046FEF720FF07230B2201212046E1
:10C3E000FEF71AFF07230C2200212046FEF714FF58
:10C3F0000D22072311462046FEF70EFF07230E22CB
:10C400000C212046FEF708FF07230F220B212046B0
:10C41000FEF702FF072310220A212046FEF7FCFE4A
:10C4200001212046FEF7BCFE01212046FEF7AEFEAC
:10C430002046FEF72BFF2046FEF7C3FE0028FAD168
:10C440002046FEF732FF2046FEF7B4FE0028FAD160
:10C4500001212046FEF71FFF06B010BD0008014075
:10C46000000C0140001001400024014008B50121EA
:10C470002020FFF787FB0A48016821F08001016056
:10C480008020ADF8000002208DF8020010208DF809
:10C490000300034869460C38FFF714F908BD000093
:10C4A0000C1401401CB54FF48063994213D29A4298
:10C4B00011D21E238DF800308DF80110090A8DF875
:10C4C0000210110A8DF803208DF804106B46032228
:10C4D000072100F055FE1CBD1CB501F2FF3240F2F1
:10C4E000FF739A421BD2002902DC00BFC1F1000198
:10C4F0004FF0200289B28DF800208DF801104FEA2C
:10C5000011218DF8021003DA41F004018DF80210B8
:10C510006B464FF003024FF0050100F031FE1CBDE9
:10C52000F8B5494C2088400403D50E210320FFF7BD
:10C53000B5F82088800403D50D210320FFF7AEF85D
:10C540002088000403D50F210320FFF7A7F82088D7
:10C55000C00403D50C210320FFF7A0F804258DF8B3
:10C5600003502078394E00060AD58020ADF800002F
:10C5700069463046FFF7A6F807210020FFF78EF83E
:10C58000207840060AD54020ADF8000069463046C4
:10C59000FFF798F806210020FFF780F82078800642
:10C5A0000AD52020ADF8000069463046FFF78AF82A
:10C5B00005210020FFF772F82078C0060AD5102068
:10C5C000ADF8000069463046FFF77CF804210020F2
:10C5D000FFF764F820781E4E00070AD50820ADF852
:10C5E000000069463046FFF76DF803210220FFF78F
:10C5F00055F82078400709D5ADF800506946304617
:10C60000FFF760F802210846FFF748F82078800716
:10C610000AD50220ADF8000069463046FFF752F80F
:10C6200001210220FFF73AF82078C0070AD0012044
:10C63000ADF8000069463046FFF744F800210220BB
:10C64000FFF72CF8F8BD000064000020000801404E
:10C650000010014007484FF480410160490001602B
:10C6600005480121016002210160082101601021BB
:10C6700001607047100801401014014008B5012105
:10C680006520FFF77FFA01211048FFF76DF8FFF7EB
:10C69000E1FF10208DF8030003208DF802008003D5
:10C6A000ADF8000069460A48FFF70CF81B20ADF80A
:10C6B000000069460748FFF705F84FF44050ADF811
:10C6C000000069460448FEF7FDFF08BD0004300085
:10C6D000000801400014014000180140FFF7CEBFE0
:10C6E00038B501212020FFF74DFA4FF47040ADF826
:10C6F000000048208DF8030069460D48FEF7E2FF70
:10C700000C4C04212046FFF75BF801214020FFF785
:10C7100039FA0420ADF8000002208DF80200102044
:10C720008DF8030069462046FEF7CCFF38BD0000B7
:10C73000001401400018014000B5002000F008F886
:10C74000024800210170417000BD00006C00002013
:10C75000F0B5074640210320FFF7ECF800244FF422
:10C76000AF7600210520FFF7E5F821460620FFF708
:10C77000E1F800253846FFF70BF93046FEF70AFFCF
:10C780006D1CEDB2102DF5D3641CE4B2402CE8D33F
:10C79000F0BD000010B5FFF721F93D4C4023636167
:10C7A0006420FEF7EAFE23616420FEF7E6FE002126
:10C7B0000846FFF7BFF800210120FFF7BBF87B21F7
:10C7C0000220FFF7B7F800210320FFF7B3F800219C
:10C7D0000420FFF7AFF800210520FFF7ABF8002198
:10C7E0000620FFF7A7F800210720FFF7A3F8002194
:10C7F0000820FFF79FF800210920FFF79BF8002190
:10C800000A20FFF797F800210B20FFF793F800218B
:10C810000C20FFF78FF800210D20FFF78BF8002187
:10C820000E20FFF787F800210F20FFF783F8002183
:10C830001320FFF77FF800211420FFF77BF8002179
:10C840001520FFF777F800211620FFF773F8002175
:10C850001720FFF76FF800211820FFF76BF82C2145
:10C860001020FFF767F824211220FFF763F8F82162
:10C870001120FFF75FF802210120FFF75BF800208D
:10C8800000F008F8FFF758FF8020206110BD00007D
:10C890000010014008B1FB2100E0F8211120FFF752
:10C8A00049B800002DE9F8434FF430414FF00060E3
:10C8B000FFF73AF94FF4C060FFF72CF95C484FF4EA
:10C8C0007A7101250068B0FBF1F0B0F1807F7DD274
:10C8D00020F07F414FF0E020491E4161554AF02190
:10C8E00082F8141D00268661072707618DF8016014
:10C8F000514C8DF802608DF8035020784FF00608F7
:10C90000C00704D08DF800806846FFF7D1F8207882
:10C91000800704D58DF800706846FFF7C9F82078C5
:10C92000400705D508208DF800006846FFF7C0F8DD
:10C930002078000705D509208DF800006846FFF72C
:10C94000B7F82078C00605D50A208DF800006846A3
:10C95000FFF7AEF8208810F4787F05D017208DF807
:10C9600000006846FFF7A4F8208810F47C4F05D03B
:10C9700028208DF800006846FFF79AF81C208DF8F3
:10C9800000008DF801508DF802608DF80350684664
:10C99000FFF78EF81D208DF8000002208DF80100B1
:10C9A0008DF802608DF803506846FFF781F8234840
:10C9B000007870B125208DF8000004208DF801006A
:10C9C0008DF802608DF80350684600E02FE0FFF715
:10C9D0006FF81B48007860B134208DF80000052006
:10C9E0008DF801008DF802608DF803506846FFF75E
:10C9F0005FF81448007860B135208DF800000320FE
:10CA00008DF801008DF802608DF803506846FFF73D
:10CA10004FF80C208DF800008DF801808DF8026031
:10CA20008DF803506846FFF743F8BDE8F883FEE74A
:10CA3000180000200FE000E0640000202C0000201F
:10CA400038000020440000202DE9FF41012108208A
:10CA5000FFF798F801210420FFF77CF822484021D5
:10CA60000160802101608515056041150160182075
:10CA70008DF80F0003208DF80E004FF47070ADF8A4
:10CA80000C00194803A91038FEF71CFE174F384652
:10CA9000FFF78EF9002445F6C0500226ADF80400D9
:10CAA000ADF80060ADF80240ADF806408DF80840E2
:10CAB00069463846FFF738FB0D48602101800121A7
:10CAC0004180848042F6E061C18006814481858195
:10CAD000C48101213846FFF756F901213846FFF796
:10CAE0005CF9BDE8FF810000100C01400008004027
:10CAF000A802002010B5FFF719F9FFF7D3FEFFF7E2
:10CB0000EFFDFFF7EFFB00F0C7F9FFF743FEFFF77C
:10CB1000E5FDFFF799FFFFF703FD00F005F8BDE81D
:10CB20001040FFF7A3BC00002DE9F041444C88B051
:10CB3000207830B9607820B9A07810B9E078002862
:10CB40007AD001210220FFF705F83E4F3846FFF763
:10CB50002FF947200025ADF810004FF6FF76ADF80D
:10CB60001460ADF81250ADF816508DF8185004A9A5
:10CB70003846FFF7D9FAADF80850334D2020ADF80C
:10CB8000000028684FF48038404500D33046ADF8A7
:10CB90000600207818B169463846FFF7D5F968686D
:10CBA000404500D33046ADF80600607818B16946BC
:10CBB0003846FFF709FAA868404500D33046ADF87B
:10CBC0000600A07818B169463846FFF73DFAE868D4
:10CBD000404500D20646ADF80660E07818B16946D7
:10CBE0003846FFF76FFA1F213846FFF7C9F820785B
:10CBF00020B1012202213846FFF79EF9607820B16A
:10CC0000012204213846FFF797F9A07820B10122CC
:10CC100008213846FFF790F9E07820B10122102171
:10CC20003846FFF789F9012211463846FFF784F9A3
:10CC300001213846FFF7A7F808B0BDE8F0810000F1
:10CC40005000002000040040980200202DE9F04729
:10CC5000734C01212046FFF763F94FF6FF7648B188
:10CC600001212046FFF78CF86E48016831440160CD
:10CC7000BDE8F0870221A2462046FFF751F9DFF810
:10CC8000A481002708F1040808F1180408F1080934
:10CC9000A4F1080560B302215046FFF771F8DFF8F0
:10CCA00080A120880AF1340A70B92888C0B9B8F880
:10CCB00000002880B9F8000020805B48016809B1B5
:10CCC00000208847208840B1BAF800103144AAF803
:10CCD00000102088401E2080CAE728880028C7D07E
:10CCE000BAF800102A881144AAF800102F80BFE774
:10CCF00004215046FFF714F960B304215046FFF7B2
:10CD00003FF8DFF81CA160880AF1380A70B968881A
:10CD1000C0B9B8F802006880B9F8020060804348E2
:10CD2000016809B101208847608840B1BAF8001055
:10CD30003144AAF800106088401E608098E7688837
:10CD4000002895D0BAF800106A881144AAF800109B
:10CD50006F808DE708215046FFF7E2F860B30821A5
:10CD60005046FFF70DF8DFF8B8A0A0880AF13C0A9A
:10CD700070B9A888C0B9B8F80400A880B9F8040050
:10CD8000A0802B48016809B102208847A08840B1E3
:10CD9000BAF800103144AAF80010A088401EA08004
:10CDA00066E7A888002897D0BAF80010AA8811442E
:10CDB000AAF80010AF805BE710215046FFF7B0F8EB
:10CDC000002889D010215046FEF7DAFFDFF850A086
:10CDD000E0880AF1400A70B9E888C0B9B8F80600DE
:10CDE000E880B9F80600E0801248016809B1032024
:10CDF0008847E08840B1BAF800103144AAF8001022
:10CE0000E088401EE08033E7E888002896D0BAF832
:10CE10000010EA881144AAF80010EF8028E700000B
:10CE2000000400407400002054000020580000203E
:10CE30005C0000206000002010B501218CB0084685
:10CE4000FEF77CFE124C2046FEF7F0FA1148002156
:10CE5000CDE900011020CDE902018020CDE90410C8
:10CE60008001CDE90810069107910A916946204694
:10CE7000FEF766FB012202212046FEF759FB05481A
:10CE800001228021001F00F053FA0CB010BD0000F9
:10CE90001C000240044800402DE9F04F87B00121FA
:10CEA00044F20500FEF76EFE4FF40075ADF8005039
:10CEB0000326A34C8DF802604FF018098DF80390FB
:10CEC00069462046FEF7FEFB2715ADF800704FF0CF
:10CED000040A8DF803A069462046FEF7F3FB994843
:10CEE0000024DFF8648200680190ADF80C400C204B
:10CEF000ADF80840ADF80E00ADF81440ADF818508C
:10CF0000ADF80A40ADF81040ADF81640ADF81A4043
:10CF100005A9404600F0F3F901A9404600F04EFA99
:10CF20000121404600F0FAF98848007828B1012232
:10CF300040F22551404600F029FA0121C804FEF7CD
:10CF400009FE01211120FEF71DFEADF80070BB4661
:10CF50007F4F8DF80260B0468DF8039069463846E1
:10CF6000FEF7B0FBF814ADF8000056468DF803A0AC
:10CF700069463846FEF7A6FB7648DFF8DCA10C27A9
:10CF800000680190ADF80840ADF80C40ADF81440D1
:10CF9000ADF81850ADF80A40ADF81040ADF80E707D
:10CFA000ADF81640ADF81A4005A9504600F0A7F9B3
:10CFB00001A9504600F002FA0121504600F0AEF9F6
:10CFC0006648007828B1012240F22551504600F011
:10CFD000DDF901210805FEF7BDFD01213120FEF735
:10CFE000D1FD4FF48050ADF800008DF80280C246AC
:10CFF000C8468DF8039069465548FEF763FBADF8C7
:10D0000000608DF8036069465548FEF75BFB5548A4
:10D01000DFF8549105A900680190ADF80840ADF81B
:10D020000C40ADF81440ADF81850ADF80A40ADF81A
:10D030001040ADF80E70ADF81640ADF81A404846F5
:10D0400000F05DF94021484600F050F901A948463A
:10D0500000F0B4F90121484600F060F94348007837
:10D0600028B1012240F22551484600F08FF90121F4
:10D070000820FEF787FD01214020FEF783FD0121F6
:10D080008804FEF767FDADF800B08DF802A08DF8BA
:10D090000380DFF8DC8069464046FEF713FB4FF45F
:10D0A0000060ADF800008DF8036069464046FEF769
:10D0B00009FB3048016821F400410160016821F456
:10D0C000804101604FF48040DFF8A880ADF8000097
:10D0D0001026A8F10C088DF8036069464046FEF75B
:10D0E000F1FAF002ADF800008DF8036069464046A1
:10D0F000FEF7E8FA20480190ADF80840ADF814407A
:10D10000ADF81850ADF80A40ADF80C40ADF810403D
:10D11000ADF81640ADF81A40184CADF80E7005A9E0
:10D12000204600F0ECF801A9204600F047F9012163
:10D13000204600F0F3F8FFF77FFE07B0BDE8F08F60
:10D140000008014030000020003801402C00002081
:10D15000001001403C000020004C0040380000203E
:10D16000001401404800002000500040440000200E
:10D17000000C01400C18014040420F0000480040E4
:10D180002DE9F04F224D2E786C78771EBC423CD0B2
:10D190000EB9132C39D0AB461E4EC4EBC40505EBBB
:10D1A000450909EB0605FF276F70AF70E87029711C
:10D1B00047186A713A44B246D7B2C4EBC406052098
:10D1C000002206EB46065644891E0DE006EB0008D9
:10D1D00013F802C088F801C013F802C0401C67446D
:10D1E000521C80B2FFB2D2B28A42EFDB0544FB434D
:10D1F0006B70401C0AF80900641CE0B28BF8010057
:10D20000142802D100208BF80100BDE8F08F000047
:10D210006F000020F40000204FF4FA5206E00021D5
:10D22000401E00BF491C89B29142FAD30028F6D1B2
:10D23000704706E00021401E00BF491C89B2082942
:10D24000FAD30028F6D1704770B5134C40F225553B
:10D250002946204600F07BF801280CD129462046BB
:10D2600000F047F80D4D286828B1204600F0FCF882
:10D270002968C0B288470821204600F061F80128DB
:10D2800008D10821204600F031F82046BDE8704062
:10D2900000F0EAB870BD0000003801403400002002
:10D2A00070B5114C40F225552946204600F04FF844
:10D2B000012809D12946204600F01BF8204600F03D
:10D2C000D3F8C0B2FDF7F6FF0821204600F038F889
:10D2D000012808D10821204600F008F82046BDE8C2
:10D2E000704000F0C1B870BD00480040C9430180E3
:10D2F00070470A0A01219140C9430180704710B567
:10D30000038A4FF2FF0213400A884C8822438C881C
:10D31000C9880C4322431A43028210BD0029818927
:10D3200002D041F4005101E021F4005181817047A5
:10D33000002A828A01D00A4300E08A438282704731
:10D340000246002012880A4200D00120704730B502
:10D3500001F01F0201240025C1F3421304FA02F276
:10D36000012B0FD0022B0FD0838A4FEA11210088A6
:10D37000134204FA01F400EA040001D000B10125CF
:10D38000284630BD8389F0E7038AEEE710B5C1F384
:10D39000421301F01F040121A140012B07D0022BF1
:10D3A00007D01430002A026805D00A4304E00C308C
:10D3B000F8E71030F6E78A43026010BD30B5044646
:10D3C000008A85B00D464CF6FF710840E98801439C
:10D3D0002182A1894EF6F3100140A8882A891043C2
:10D3E0006A890A431043A081A08A4FF6FF41084092
:10D3F000A9890143A1826846FEF7DCFB19488442F3
:10D4000001D1039800E00298A189090400EBC00152
:10D4100001EB0010296801D5490000E08900B0FB4C
:10D42000F1F06422B0FBF2F109010B096FF018056D
:10D430006B4300EB8300A3891D044FF0320306D534
:10D4400003EBC000B0FBF2F000F0070005E003EBD7
:10D450000010B0FBF2F000F00F000843208105B08F
:10D4600030BD0000003801408088C0F308007047DC
:10D4700010B5FEF7A7F91C494FF4C8744FF47A723F
:10D4800009282FD2DFE800F02905132929211329C3
:10D4900005000878012805D11046FEF7C7FA3220AA
:10D4A000FFF7BAFE2046BDE81040FEF7DFBA087865
:10D4B000012805D11046FEF7B9FA3220FFF7ACFE7D
:10D4C0002046BDE81040FEF7E3BA1046FEF7AEFA7C
:10D4D000BDE810403220FFF79FBE2046BDE8104057
:10D4E000FEF7B2BA10BD00000000002002E008C83C
:10D4F000121F08C1002AFAD170477047002001E0CE
:10D5000001C1121F002AFBD170470000FFF7F2FA99
:10D510004FF4487422464FF402710320FEF7C2FF15
:10D52000224640F212210420FEF7BCFF2046FFF7FE
:10D5300073FE00BFFFF79CFFFCE700005CD500080E
:10D5400000000020D4000000ECD4000830D6000811
:10D55000D4000020E4050000FCD40008000204060A
:10D56000080000000001020304010203040607088A
:10D570000900000000A24A040000000000000000B2
:10D5800001020304060708090000000000C20100B0
:10D590000000000000000000004B00000000000040
:10D5A0000000000000C201000000000000000000B8
:10D5B000000000000000000000000000000000006B
:10D5C000000000000000000000000000000000005B
:10D5D000000000000000000000000000000000004B
:10D5E000000000000000000000000000000000003B
:10D5F000000000000000000000000000000000002B
:10D6000000000000200300000000000000000000F7
:10D61000000000000000000000000000000000000A
:10D6200000000000000000000000000000000000FA
:040000050800B1310D
:00000001FF
