:020000040800F2
:10B00000B806002045B100084DB100084FB1000856
:10B0100051B1000853B1000855B10008000000000C
:10B0200000000000000000000000000057B1000810
:10B0300059B10008000000005BB1000809BC00081D
:10B040005FB100085FB100085FB100085FB10008A0
:10B050005FB100085FB1000855B60008A9B6000846
:10B06000AFB60008B5B60008BBB6000841B400088A
:10B0700059B400085FB100085FB100085FB1000873
:10B080005FB100085FB100085FB100085FB1000860
:10B090005FB100085FB100085FB10008C1B60008E9
:10B0A0005FB100085FB100085FB100085FB1000840
:10B0B0005FB100085DBC00085FB100085FB1000827
:10B0C0005FB100085FB100085FB100085FB1000820
:10B0D0005FB1000815D100085FB100086DD100080C
:10B0E0005BB600085FB100085FB100085FB10008FF
:10B0F0005FB100085FB100085FB100085FB10008F0
:10B100005FB100085FB100085FB100085FB10008DF
:10B11000A5C00008FDC000085FB100085FB10008CD
:10B120005FB100085FB100085FB100085FB10008BF
:10B13000DFF80CD000F05AF800480047F5D50008B9
:10B14000B80600200648804706480047FEE7FEE7AD
:10B15000FEE7FEE7FEE7FEE7FEE7FEE7FEE7FEE7C7
:10B160000DBC000831B100082DE9F05F0546002054
:10B1700092469B4688460646814640241BE0284668
:10B1800041464746224600F020F853465A46C01A28
:10B19000914110D311461846224600F039F82D1A75
:10B1A00067EB01084F4622460120002100F030F8ED
:10B1B00017EB00094E41201EA4F10104DFDC4846D4
:10B1C00031462A464346BDE8F09F202A04DB203A58
:10B1D00021FA02F00021704721FA02F3D040C2F1B7
:10B1E000200291400843194670470000064C074D65
:10B1F00006E0E06840F0010394E807009847103447
:10B20000AC42F6D3FFF798FF24D6000844D60008D6
:10B21000202A04DB203A00FA02F100207047914016
:10B22000C2F1200320FA03F319439040704700292C
:10B23000816802D041F0010101E021F0010181604B
:10B2400070470029816802D041F4807101E021F447
:10B25000807181607047014600208968490700D5E8
:10B2600001207047014600208968090700D50120A8
:10B270007047000010B542680E4B0C791A400B68FD
:10B2800042EA04221343436083680B4A1340D1E926
:10B29000024222434C7943EA44031A438260C26A61
:10B2A000097C22F47002491EC9B242EA0151C1620E
:10B2B00010BD0000FFFEF0FFFDF7F1FF70B50724A1
:10B2C00009290AD9C568A1F10A0606EB4606B44069
:10B2D000A543B3401D43C56007E0056901EB410686
:10B2E000B440A543B3401D4305611F23072A09D27B
:10B2F000446B521E02EB820293409C4391400C43EC
:10B30000446370BD0D2A09D2046BD21F02EB820286
:10B3100093409C4391400C43046370BDC46A0D3A52
:10B3200002EB820293409C4391400C43C46270BD87
:10B33000816841F00801816070470029816802D06E
:10B3400041F4A00101E021F4A0018160704781680F
:10B3500041F004018160704770B5234900220B461B
:10B360000D790324DB78052D09D2DFE805F0030908
:10B370000E121D00FF2801D1012004E0CA7070BD2B
:10B38000FF2808D10220087170BD20B9CA700C7165
:10B3900070BD032801D00A71F0E7DB1C8C71CB7003
:10B3A000042008714A7170BD8E790F4D4C79343587
:10B3B000761EB44206DA28551844C87004F1010418
:10B3C0004C7170BDFDD16FEA0303DBB2CB708342D9
:10B3D00006D1287820B96878C871086B401C0863CA
:10B3E000CA704A710A7170BD9400002030B51048CF
:10B3F000427801788A421AD00E4A136843F4804397
:10B400001360C1EBC10202EB42040B4B0B4AE5187F
:10B410006D1C95621B5D1362D36943F00103D36118
:10B42000491CC9B20170142901D10021017030BD3D
:10B430006B0000200C180140F400002000000240C6
:10B4400010B5022000F0AAF8002804D0BDE8104092
:10B45000012000F019B810BD094810B5016889062F
:10B460000DD510214160C16921F00101C161642045
:10B4700001F045FE0348016821F48041016010BDE0
:10B48000000002400C180140C10002D502490860CA
:10B4900070470249486070470404024000000240BF
:10B4A0000029016802D041F0010102E04FF6FE726E
:10B4B000114001607047000001684FF6FE721140B4
:10B4C00001600021016041608160C1603149314A01
:10B4D0000839904203D1486840F00F0006E02D4A39
:10B4E0001432904204D1486840F0F0004860704740
:10B4F000284A2832904203D1486840F47060F5E74A
:10B50000244A3C32904203D1486840F47040EDE751
:10B51000204A5032904203D1486840F47020E5E759
:10B520001C4A6432904203D1486840F47000DDE761
:10B53000184A7832904203D1486840F07060D5E7ED
:10B54000154A111F904203D1086840F00F0006E031
:10B55000114A1432904204D1086840F0F0000860AB
:10B5600070470D4A2832904203D1086840F4706059
:10B57000F5E7094A3C32904203D1086840F4704034
:10B58000EDE7054A50329042EAD1086840F4702055
:10B59000E5E70000080002400804024001460020E0
:10B5A000CA0001D5034A00E0034A12680A4200D0EB
:10B5B000012070470004024000000240002A026897
:10B5C00001D00A4300E08A430260704730B5036847
:10B5D00047F6F07293430C6A8A682243D1E9044526
:10B5E0002C4322438C692243CC6922434C6A224378
:10B5F0008C6A22431A430260CA6842600A68826009
:10B600004968C16030BD000010B5052000F0D0FDD4
:10B610000146BDE8104001A000F07EB947524159F3
:10B62000000000004FF4FA5206E0401E80B20021F4
:10B63000491C89B29142FBD30028F6D1704706E03D
:10B64000401E80B20021491C89B20829FBD3002882
:10B65000F6D17047012000F069B810B54FF480644E
:10B66000204600F053F8C8B96400204600F04EF8B8
:10B67000A0B96400204600F049F878B9640020467B
:10B6800000F044F850B96400204600F03FF828B9B3
:10B690006400204600F03AF8002804D02046BDE8B7
:10B6A000104000F043B810BD022000F03FB8042065
:10B6B00000F03CB8082000F039B8102000F036B88F
:10B6C00010B5202000F022F808B1202018E040201A
:10B6D00000F01CF808B1402012E0802000F016F8BD
:10B6E00008B180200CE04FF48074204600F00EF882
:10B6F00028B96400204600F009F8002804D020464C
:10B70000BDE8104000F012B810BD0000064A014626
:10B7100000201268044B0A4014331B680B4202D00D
:10B72000002A00D0012070470004014010B50446F3
:10B730000348016809B1204688470248046010BDEB
:10B74000640000201404014010B58A0721F00304AE
:10B750000649130F21440F228C689A4094438C6051
:10B760008A68984002438A6010BD000000000140D2
:10B77000F0B5CA78002502F00F03D20601D58A7809
:10B7800013430A784FF00F0E12F0FF0F4FF0010233
:10B790001CD004680F8802FA05F63740B74211D171
:10B7A0004FEA850C0EFA0CF724EA070703FA0CF4AB
:10B7B0003C43CF78282F02D0482F02D002E04661C8
:10B7C00000E006616D1C082DE4D304600C88FF2C9A
:10B7D0001ED944685FF0000606F1080702FA07F573
:10B7E0000F882F40AF420FD14FEA860C0EFA0CF7AC
:10B7F000BC4303FA0CF73C43CF78282F00D14561B6
:10B80000CF78482F00D10561761C082EE4D3446020
:10B81000F0BD0000F0B5144C002801DAE36900E047
:10B820006368420D120185B2C0F301579540C0F321
:10B830000346032F05D0C2020AD50322B240934328
:10B8400007E023F07062636823F07063636002E0D6
:10B85000AB4343F0706201B12A43002801DAE26190
:10B86000F0BD6260F0BD0000000001404161704722
:10B8700070B5154A0E464FF480740146146000BF3F
:10B8800000BF00BF4FF40070106000BF00BF00BFDA
:10B890004FF4006010604310136000BF00BF00BF92
:10B8A000094D2D1F286000BF00BF00BF084600F0F3
:10B8B00039F900BF00BF00BF304600F033F900BFC8
:10B8C00000BF00BF2C6070BD1414014030B5114999
:10B8D0004FF480750D6000BF00BF00BF0D4C4FF4EA
:10B8E0000072241F226000BF00BF00BF4FF400623F
:10B8F0000A6053100B6000BF00BF00BF226000BF92
:10B9000000BF00BF00F00EF900BF00BF00BF256000
:10B9100030BD00001414014010B50A46014605A0D0
:10B9200001F00CFD4FF4C87001F0DCFBBDE81040E5
:10B9300000F04EBE2573203D2025640A0000000063
:10B9400008B50121102000F08DF80121202000F021
:10B9500089F80D494FF48070086010208DF80300BD
:10B9600003208DF80200C020ADF8000069460748AA
:10B97000FFF7FEFE4FF47060ADF800000248694624
:10B980001038FFF7F5FE08BD10140140001001400B
:10B9900070B50F23C47801780122F4B1144C2468E7
:10B9A000457804F4E064C4F5E064240AC4F10406B4
:10B9B000E3408478B5401C402C4301F1E021230191
:10B9C00081F80034007800F01F018A4040098000AF
:10B9D00000F1E020C0F8002170BD01F01F0082409E
:10B9E0004809800000F1E020C0F8802170BD00000F
:10B9F0000CED00E00249084302490860704700006E
:10BA00000000FA050CED00E0024A11400143024833
:10BA10000160704780FFFF1F08ED00E0044A002925
:10BA2000516901D0014300E081435161704700003A
:10BA300000100240044A0029D16901D0014300E00E
:10BA40008143D1617047000000100240044A002980
:10BA5000116901D0014300E081431161704700008A
:10BA600000100240044A0029916901D0014300E01E
:10BA7000814391617047000000100240044A002990
:10BA8000D16801D0014300E08143D16070470000DC
:10BA90000010024030B51F494A6812F00C031E4ADC
:10BAA00003D0042B01D0082B21D002604A680F2359
:10BAB0001A4C03EA1212A35C0268DA4042604B6837
:10BAC000072505EA1323E35C22FA03F383604B683E
:10BAD00005EAD323E35CDA40C2604968032303EA42
:10BAE0009131231F595CB2FBF1F1016130BD4A680D
:10BAF0004B6802F470124FF0020413F4803F04EB21
:10BB0000924202D04B689B0301D5054B00E0024BEB
:10BB10005A43CAE70010024000127A0004000020D5
:10BB200000093D0070B50D4B00211C15DA141D1FD6
:10BB30001A60060601D52C6000E01C6000BF00BF43
:10BB400000BF2A604006000E00BF00BF00BF491CB6
:10BB5000C9B20829ECD32A602C6070BD14140140CE
:10BB60000CB50021264801910091026842F4803210
:10BB700002604FF4A063026802F400320092019A5E
:10BB8000521C0192009A12B9019A9A42F3D10268AA
:10BB9000920333D5012100911A490A6842F010023C
:10BBA0000A600A6822F003020A600A6842F0020290
:10BBB0000A604168416041684160416841F48061C8
:10BBC0004160416821F47C114160416841F4E81111
:10BBD0004160016841F08071016001688901FCD514
:10BBE000416821F003014160416841F00201416078
:10BBF0004168C1F381010229FAD10CBD00910CBD4D
:10BC00000010024000200240FFF7F0BB0F4810B5C3
:10BC1000016841F00101016041680D4A1140416035
:10BC200001680C4A11400160016821F48021016023
:10BC3000416821F4FE0141604FF41F018160FFF76C
:10BC40008FFF05494FF00060086010BD00100240F2
:10BC50000000FFF8FFFFF6FE08ED00E000F05CBF1B
:10BC6000C943018270470029018802D041F00101D7
:10BC700001E021F0010101807047002930F8441FE4
:10BC800002D041F4004101E0C1F30E010180704790
:10BC90004B4910B5884202D10121C41486E0B0F1AD
:10BCA000804F09D0474988420DD101210220FFF77A
:10BCB000CDFE0021022064E001210846FFF7C6FE08
:10BCC000002101205DE04049884206D10121042085
:10BCD000FFF7BCFE0021042053E03C49884206D116
:10BCE00001210820FFF7B2FE0021082049E0384971
:10BCF000884206D101211020FFF7A8FE0021102064
:10BD00003FE03449884206D101212020FFF79EFE02
:10BD10000021202035E03049884202D1012144141D
:10BD200044E02E49884202D10121CC043EE02C4956
:10BD3000884202D101210C0538E02A49884202D10B
:10BD400001214C0532E02849884206D101214020DA
:10BD5000FFF77CFE0021402013E02449884206D1F1
:10BD600001218020FFF772FE0021802009E0204998
:10BD700088420AD1841501212046FFF767FE002181
:10BD80002046BDE81040FFF761BE1A49884202D143
:10BD900001210C040AE01849884202D101214C0417
:10BDA00004E0164988420AD101218C042046FFF79D
:10BDB00065FE2046BDE810400021FFF75FBE10BDC4
:10BDC000002C01400004004000080040000C00402E
:10BDD000001000400014004000340140004C0140BD
:10BDE000005001400054014000180040001C004079
:10BDF0000020004000400140004401400048014054
:10BE000002460020138A92890B4202EA010202D004
:10BE1000002A00D001207047002A828901D00A43FD
:10BE200000E08A438281704730B5028C22F0010223
:10BE30000284028C8388048B22F0020224F07305B2
:10BE40000C882C430D8915434A882A43114DA8427A
:10BE50000BD0114DA84208D0104DA84205D0104D6E
:10BE6000A84202D00F4DA8420DD122F008054A8900
:10BE700023F440732A4322F004058A882A438D89DB
:10BE80001D43CB892B4383800483C9888186028428
:10BE900030BD0000002C0140003401400040014052
:10BEA000004401400048014070B5028C22F01002AD
:10BEB0000284028C8488038B0D8823F4E6464FF6B7
:10BEC000FF7303EA052535430E8922F0200203EAB9
:10BED000061616434A8803EA02123243104EB04255
:10BEE00002D0104EB04215D122F080064A8924F4C7
:10BEF000406403EA0212324322F040068A8803EAD1
:10BF0000021232438E8903EA86062643CC8903EA6D
:10BF10008404344384800583C9880187028470BD0A
:10BF2000002C01400034014070B5028C22F4807274
:10BF30000284028C8488838B0D8823F073031D4355
:10BF400022F400730E894FF6FF7202EA06261E43A2
:10BF50004B8802EA03233343104EB04202D0104E06
:10BF6000B04215D123F400664B8924F4405402EA10
:10BF70000323334323F480668B8802EA032333438D
:10BF80008E8902EA06162643CC8902EA0414344359
:10BF900084808583C9888187038470BD002C01401B
:10BFA0000034014070B5028C22F480520284048C6B
:10BFB0008288838B0D8823F4E6464FF6FF7303EAED
:10BFC0000525354324F400560C8903EA0434344330
:10BFD0004E8803EA06362643094CA04202D0094C9B
:10BFE000A04205D122F480448A8903EA82122243C6
:10BFF00082808583C988A0F84010068470BD000047
:10C00000002C01400034014030B502881B4B1C4C11
:10C0100098420DD0A0420BD0B0F1804F08D0194DFE
:10C02000A84205D0184DA84202D0184DA84203D10D
:10C0300022F070054A882A43154DA84206D0154DB6
:10C04000A84203D022F44075CA882A4302808A8815
:10C0500082850A88028598420AD0A04208D00E4AFA
:10C06000904205D00D4A904202D00D4A904201D133
:10C07000097A01860121818230BD0000002C014037
:10C08000003401400004004000080040000C004063
:10C0900000100040001400400040014000440140F6
:10C0A0000048014070B5134C40F225552946204602
:10C0B00001F0B3F801280CD12946204601F07FF8A1
:10C0C0000D4D286828B1204601F034F92968C0B226
:10C0D00088470821204601F099F8012808D1082155
:10C0E000204601F069F82046BDE8704001F022B911
:10C0F00070BD0000004C00403C00002070B5134CA7
:10C1000040F225552946204601F087F801280CD138
:10C110002946204601F053F80D4D286828B12046E5
:10C1200001F008F92968C0B288470821204601F0CB
:10C130006DF8012808D10821204601F03DF820467D
:10C14000BDE8704001F0F6B870BD0000005000403E
:10C150004800002010B501218CB00846FFF75EFCB6
:10C16000104C2046FFF7A8F90F4800900F48002117
:10C17000CDE901011020CDE90301802005904000A8
:10C18000069080000790202008900002CDE9090168
:10C1900069462046FFF71AFA01212046FFF780F989
:10C1A0000CB010BD080002404C240140D400002017
:10C1B000102803D2024931F8100070470020704760
:10C1C000D400002010B586B0FFF7C4FF012148025B
:10C1D000FFF748FC01210420FFF744FC012108205F
:10C1E000FFF740FC01211020FFF73CFC00248DF8F4
:10C1F0001740FF20ADF8140005A95048FFF7B8FA22
:10C200000320ADF8140005A94D48FFF7B1FA3F200F
:10C21000ADF8140005A94B48FFF7AAFA01208DF8E4
:10C2200004008DF805004FF46020CDE9020400946D
:10C230001020454C8DF8100069462046FFF71AF88B
:10C240000723012209212046FFF738F8072302229D
:10C2500008212046FFF732F8072303220F2120464A
:10C26000FFF72CF8072304220E212046FFF726F8BB
:10C270000723052219462046FFF720F80622072348
:10C2800011462046FFF71AF807231A4605212046D3
:10C29000FFF714F80723082204212046FFF70EF8C1
:10C2A0000723092203212046FFF708F807230A2263
:10C2B00002212046FFF702F807230B220121204626
:10C2C000FEF7FCFF07230C2200212046FEF7F6FFB5
:10C2D0000D22072311462046FEF7F0FF07230E220A
:10C2E0000C212046FEF7EAFF07230F220B212046F0
:10C2F000FEF7E4FF072310220A212046FEF7DEFFA7
:10C3000001212046FEF79DFF01212046FEF78FFF09
:10C310002046FFF70DF82046FEF7A4FF0028FAD1CB
:10C320002046FFF714F82046FEF795FF0028FAD1C3
:10C3300001212046FFF701F806B010BD00080140BA
:10C34000000C0140001001400024014008B501210B
:10C350002020FFF787FB0A48016821F08001016077
:10C360008020ADF8000002208DF8020010208DF82A
:10C370000300034869460C38FFF7FAF908BD0000CE
:10C380000C1401401CB54FF48063994213D29A42B9
:10C3900011D21E238DF800308DF80110090A8DF896
:10C3A0000210110A8DF803208DF804106B46032249
:10C3B000072100F04BFE1CBDF8B5494C2088400415
:10C3C00003D50E210320FFF7BFF92088800403D591
:10C3D0000D210320FFF7B8F92088000403D50F21B1
:10C3E0000320FFF7B1F92088C00403D50C210320F6
:10C3F000FFF7AAF904258DF803502078394E00067E
:10C400000AD58020ADF8000069463046FFF7B0F944
:10C4100007210020FFF798F9207840060AD5402030
:10C42000ADF8000069463046FFF7A2F9062100206A
:10C43000FFF78AF9207880060AD52020ADF80000A1
:10C4400069463046FFF794F905210020FFF77CF993
:10C450002078C0060AD51020ADF8000069463046A5
:10C46000FFF786F904210020FFF76EF920781E4EB1
:10C4700000070AD50820ADF8000069463046FFF7EE
:10C4800077F903210220FFF75FF92078400709D5EB
:10C49000ADF8005069463046FFF76AF902210846B8
:10C4A000FFF752F9207880070AD50220ADF8000086
:10C4B00069463046FFF75CF901210220FFF744F995
:10C4C0002078C0070AD00120ADF800006946304648
:10C4D000FFF74EF900210220FFF736F9F8BD000002
:10C4E00060000020000801400010014007484FF4A0
:10C4F000804101604900016005480121016002217D
:10C50000016008210160102101607047100801409E
:10C510001014014008B501216520FFF7A3FA01219D
:10C520001048FFF777F9FFF7E1FF10208DF80300BF
:10C5300003208DF802008003ADF8000069460A4828
:10C54000FFF716F91B20ADF8000069460748FFF712
:10C550000FF94FF44050ADF8000069460448FFF76A
:10C5600007F908BD00043000000801400014014034
:10C5700000180140FFF7CEBF38B501212020FFF79A
:10C5800071FA4FF47040ADF8000048208DF80300B8
:10C5900069460D48FFF7ECF80C4C04212046FFF7E4
:10C5A00065F901214020FFF75DFA0420ADF8000095
:10C5B00002208DF8020010208DF803006946204605
:10C5C000FFF7D6F838BD0000001401400018014004
:10C5D00000B5002000F008F8024800210170417009
:10C5E00000BD000068000020F0B507464021032090
:10C5F000FFF73EF900244FF4AF7600210520FFF746
:10C6000037F921460620FFF733F900253846FFF7B2
:10C610005DF93046FFF713F86D1CEDB2102DF5D320
:10C62000641CE4B2402CE8D3F0BD000010B5FFF765
:10C6300087F93D4C402363616420FEF7F3FF2361DB
:10C640006420FEF7EFFF00210846FFF711F90021F3
:10C650000120FFF70DF97B210220FFF709F90021E6
:10C660000320FFF705F900210420FFF701F900215D
:10C670000520FFF7FDF800210620FFF7F9F800215B
:10C680000720FFF7F5F800210820FFF7F1F8002157
:10C690000920FFF7EDF800210A20FFF7E9F8002153
:10C6A0000B20FFF7E5F800210C20FFF7E1F800214F
:10C6B0000D20FFF7DDF800210E20FFF7D9F800214B
:10C6C0000F20FFF7D5F800211320FFF7D1F8002144
:10C6D0001420FFF7CDF800211520FFF7C9F800213D
:10C6E0001620FFF7C5F800211720FFF7C1F8002139
:10C6F0001820FFF7BDF82C211020FFF7B9F82421EE
:10C700001220FFF7B5F8F8211120FFF7B1F8022148
:10C710000120FFF7ADF8002000F022F8FFF758FFE6
:10C720008020206110BD00000010014070B50C4653
:10C730000546164642210320FFF79AF829460520B0
:10C74000FFF796F82007010E0620FFF791F8304614
:10C75000FFF7BCF8BDE870404FF4AF70FEF76FBF55
:10C7600008B1FB2100E0F8211120FFF781B800009B
:10C770002DE9F8434FF430414FF00060FFF744F9E2
:10C780004FF4C060FFF736F95C484FF47A71012529
:10C790000068B0FBF1F0B0F1807F7DD220F07F41E6
:10C7A0004FF0E020491E4161554AF02182F8141DE6
:10C7B00000268661072707618DF80160514C8DF8CE
:10C7C00002608DF8035020784FF00608C00704D0AF
:10C7D0008DF800806846FFF7DBF82078800704D5E5
:10C7E0008DF800706846FFF7D3F82078400705D52C
:10C7F00008208DF800006846FFF7CAF82078000787
:10C8000005D509208DF800006846FFF7C1F82078AB
:10C81000C00605D50A208DF800006846FFF7B8F875
:10C82000208810F4787F05D017208DF80000684626
:10C83000FFF7AEF8208810F47C4F05D028208DF843
:10C8400000006846FFF7A4F81C208DF800008DF862
:10C8500001508DF802608DF803506846FFF798F894
:10C860001D208DF8000002208DF801008DF8026077
:10C870008DF803506846FFF78BF82348007870B1B5
:10C8800025208DF8000004208DF801008DF802604D
:10C890008DF80350684600E02FE0FFF779F81B4859
:10C8A000007860B134208DF8000005208DF801007B
:10C8B0008DF802608DF803506846FFF769F8144858
:10C8C000007860B135208DF8000003208DF801005C
:10C8D0008DF802608DF803506846FFF759F80C2078
:10C8E0008DF800008DF801808DF802608DF80350FE
:10C8F0006846FFF74DF8BDE8F883FEE71400002016
:10C900000FE000E06000002028000020340000203C
:10C91000400000202DE9FF4101210820FFF7A2F887
:10C9200001210420FFF786F8224840210160802180
:10C930000160851505604115016018208DF80F0014
:10C9400003208DF80E004FF47070ADF80C001948FC
:10C9500003A91038FEF70CFF174F3846FFF798F978
:10C96000002445F6C0500226ADF80400ADF8006082
:10C97000ADF80240ADF806408DF8084069463846EB
:10C98000FFF742FB0D486021018001214180848036
:10C9900042F6E061C180068144818581C481012124
:10C9A0003846FFF760F901213846FFF766F9BDE820
:10C9B000FF810000100C014000080040A802002088
:10C9C00010B5FFF723F9FFF7D3FEFFF7D5FDFFF70B
:10C9D000F9FB00F0C7F9FFF729FEFFF7CBFDFFF7E2
:10C9E00099FFFFF7E9FC00F005F8BDE81040FFF7FC
:10C9F000ADBC00002DE9F041444C88B0207830B93E
:10CA0000607820B9A07810B9E07800287AD00121A8
:10CA10000220FFF70FF83E4F3846FFF739F947205D
:10CA20000025ADF810004FF6FF76ADF81460ADF8B4
:10CA30001250ADF816508DF8185004A93846FFF77B
:10CA4000E3FAADF80850334D2020ADF80000286817
:10CA50004FF48038404500D33046ADF806002078CA
:10CA600018B169463846FFF7DFF96868404500D3DA
:10CA70003046ADF80600607818B169463846FFF7D1
:10CA800013FAA868404500D33046ADF80600A078F8
:10CA900018B169463846FFF747FAE868404500D2C2
:10CAA0000646ADF80660E07818B169463846FFF7EB
:10CAB00079FA1F213846FFF7D3F8207820B10122F8
:10CAC00002213846FFF7A8F9607820B1012204213D
:10CAD0003846FFF7A1F9A07820B101220821384695
:10CAE000FFF79AF9E07820B1012210213846FFF7CC
:10CAF00093F9012211463846FFF78EF90121384695
:10CB0000FFF7B1F808B0BDE8F08100004C0000204C
:10CB100000040040980200202DE9F047734C0121E9
:10CB20002046FFF76DF94FF6FF7648B10121204608
:10CB3000FFF796F86E48016831440160BDE8F08760
:10CB40000221A2462046FFF75BF9DFF8A481002707
:10CB500008F1040808F1180408F10809A4F108050F
:10CB600060B302215046FFF77BF8DFF880A12088F0
:10CB70000AF1340A70B92888C0B9B8F800002880D2
:10CB8000B9F8000020805B48016809B1002088479F
:10CB9000208840B1BAF800103144AAF8001020886B
:10CBA000401E2080CAE728880028C7D0BAF80010A5
:10CBB0002A881144AAF800102F80BFE704215046AC
:10CBC000FFF71EF960B304215046FFF749F8DFF87C
:10CBD0001CA160880AF1380A70B96888C0B9B8F831
:10CBE00002006880B9F8020060804348016809B11A
:10CBF00001208847608840B1BAF800103144AAF893
:10CC000000106088401E608098E76888002895D0F2
:10CC1000BAF800106A881144AAF800106F808DE7F6
:10CC200008215046FFF7ECF860B308215046FFF7A3
:10CC300017F8DFF8B8A0A0880AF13C0A70B9A888F4
:10CC4000C0B9B8F80400A880B9F80400A0802B4847
:10CC5000016809B102208847A08840B1BAF80010E5
:10CC60003144AAF80010A088401EA08066E7A8887A
:10CC7000002897D0BAF80010AA881144AAF800102A
:10CC8000AF805BE710215046FFF7BAF8002889D043
:10CC900010215046FEF7E4FFDFF850A0E0880AF1CB
:10CCA000400A70B9E888C0B9B8F80600E880B9F859
:10CCB0000600E0801248016809B103208847E08837
:10CCC00040B1BAF800103144AAF80010E088401EC4
:10CCD000E08033E7E888002896D0BAF80010EA88A8
:10CCE0001144AAF80010EF8028E70000000400407B
:10CCF0007000002050000020540000205800002048
:10CD00005C00002010B501218CB00846FEF786FEBD
:10CD1000124C2046FEF7D0FB11480021CDE900015E
:10CD20001020CDE902018020CDE904108001CDE979
:10CD30000810069107910A9169462046FEF746FCC5
:10CD4000012202212046FEF739FC054801228021FC
:10CD5000001F00F053FA0CB010BD00001C00024090
:10CD6000044800402DE9F04F87B0012144F205004E
:10CD7000FEF778FE4FF40075ADF800500326A34C83
:10CD80008DF802604FF018098DF80390694620462F
:10CD9000FEF7EEFC2715ADF800704FF0040A8DF891
:10CDA00003A069462046FEF7E3FC99480024DFF81B
:10CDB000648200680190ADF80C400C20ADF808408A
:10CDC000ADF80E00ADF81440ADF81850ADF80A40BB
:10CDD000ADF81040ADF81640ADF81A4005A9404630
:10CDE00000F0F3F901A9404600F04EFA0121404657
:10CDF00000F0FAF98848007828B1012240F2255164
:10CE0000404600F029FA0121C804FEF713FE012173
:10CE10001120FEF727FEADF80070BB467F4F8DF85E
:10CE20000260B0468DF8039069463846FEF7A0FCD4
:10CE3000F814ADF8000056468DF803A06946384650
:10CE4000FEF796FC7648DFF8DCA10C27006801901D
:10CE5000ADF80840ADF80C40ADF81440ADF81850EE
:10CE6000ADF80A40ADF81040ADF80E70ADF81640C0
:10CE7000ADF81A4005A9504600F0A7F901A950469F
:10CE800000F002FA0121504600F0AEF96648007841
:10CE900028B1012240F22551504600F0DDF9012170
:10CEA0000805FEF7C7FD01213120FEF7DBFD4FF439
:10CEB0008050ADF800008DF80280C246C8468DF85B
:10CEC000039069465548FEF753FCADF800608DF8B5
:10CED000036069465548FEF74BFC5548DFF854910E
:10CEE00005A900680190ADF80840ADF80C40ADF818
:10CEF0001440ADF81850ADF80A40ADF81040ADF848
:10CF00000E70ADF81640ADF81A40484600F05DF9D5
:10CF10004021484600F050F901A9484600F0B4F914
:10CF20000121484600F060F94348007828B1012209
:10CF300040F22551484600F08FF901210820FEF704
:10CF400091FD01214020FEF78DFD01218804FEF7AF
:10CF500071FDADF800B08DF802A08DF80380DFF808
:10CF6000DC8069464046FEF703FC4FF40060ADF8F4
:10CF700000008DF8036069464046FEF7F9FB304833
:10CF8000016821F400410160016821F480410160E1
:10CF90004FF48040DFF8A880ADF800001026A8F11B
:10CFA0000C088DF8036069464046FEF7E1FBF0028D
:10CFB000ADF800008DF8036069464046FEF7D8FBE7
:10CFC00020480190ADF80840ADF81440ADF8185075
:10CFD000ADF80A40ADF80C40ADF81040ADF8164081
:10CFE000ADF81A40184CADF80E7005A9204600F0B7
:10CFF000ECF801A9204600F047F90121204600F095
:10D00000F3F8FFF77FFE07B0BDE8F08F000801409E
:10D010002C000020003801402800002000100140B2
:10D0200038000020004C0040340000200014014073
:10D03000440000200050004040000020000C01404F
:10D040000C18014040420F00004800402DE9F04F0D
:10D05000224D2E786C78771EBC423CD00EB9132C32
:10D0600039D0AB461E4EC4EBC40505EB450909EBB0
:10D070000605FF276F70AF70E870297147186A7155
:10D080003A44B246D7B2C4EBC4060520002206EBF0
:10D0900046065644891E0DE006EB000813F802C050
:10D0A00088F801C013F802C0401C6744521C80B2CB
:10D0B000FFB2D2B28A42EFDB0544FB436B70401CE7
:10D0C0000AF80900641CE0B28BF80100142802D1B0
:10D0D00000208BF80100BDE8F08F00006B000020FD
:10D0E000F40000204FF4FA5206E00021401E00BF79
:10D0F000491C89B29142FAD30028F6D1704706E064
:10D100000021401E00BF491C89B20829FAD300281B
:10D11000F6D1704770B5134C40F22555294620468C
:10D1200000F07BF801280CD12946204600F047F892
:10D130000D4D286828B1204600F0FCF82968C0B2DF
:10D1400088470821204600F061F8012808D108210D
:10D15000204600F031F82046BDE8704000F0EAB803
:10D1600070BD0000003801403000002070B5114C47
:10D1700040F225552946204600F04FF8012809D1F4
:10D180002946204600F01BF8204600F0D3F8C0B234
:10D19000FEF7E2F80821204600F038F8012808D10F
:10D1A0000821204600F008F82046BDE8704000F055
:10D1B000C1B870BD00480040C943018070470A0AE9
:10D1C00001219140C9430180704710B5038A4FF295
:10D1D000FF0213400A884C8822438C88C9880C437C
:10D1E00022431A43028210BD0029818902D041F4F2
:10D1F000005101E021F4005181817047002A828AA8
:10D2000001D00A4300E08A43828270470246002030
:10D2100012880A4200D00120704730B501F01F0289
:10D2200001240025C1F3421304FA02F2012B0FD0AE
:10D23000022B0FD0838A4FEA11210088134204FA8F
:10D2400001F400EA040001D000B10125284630BDF8
:10D250008389F0E7038AEEE710B5C1F3421301F0CA
:10D260001F040121A140012B07D0022B07D014304D
:10D27000002A026805D00A4304E00C30F8E71030B9
:10D28000F6E78A43026010BD30B50446008A85B0D7
:10D290000D464CF6FF710840E98801432182A189BF
:10D2A0004EF6F3100140A8882A8910436A890A4380
:10D2B0001043A081A08A4FF6FF410840A98901438D
:10D2C000A1826846FEF7E6FB1948844201D1039823
:10D2D00000E00298A189090400EBC00101EB0010F5
:10D2E000296801D5490000E08900B0FBF1F0642213
:10D2F000B0FBF2F109010B096FF018056B4300EB6D
:10D300008300A3891D044FF0320306D503EBC00050
:10D31000B0FBF2F000F0070005E003EB0010B0FBFB
:10D32000F2F000F00F000843208105B030BD00008E
:10D33000003801408088C0F3080070470FB4054BE7
:10D3400010B503A9044A029800F018F810BC5DF863
:10D3500014FB0000A9D50008D000002002E008C896
:10D36000121F08C1002AFAD170477047002001E05F
:10D3700001C1121F002AFBD1704700002DE9FF4FA9
:10D380008BB09A460F460446002606E025280BD0AF
:10D3900052460D999047641C761C20780028F5D1E0
:10D3A0000FB03046BDE8F08F0025A94601227D4927
:10D3B00000E0054314F8013F203B02FA03F0084265
:10D3C000F7D120782E2817D114F8010F45F0040565
:10D3D0002A280ED06FF02F022078A0F13001092901
:10D3E0000AD809EB890102EB410100EB0109641C39
:10D3F000F2E757F8049B641C20786C280DD004DCFD
:10D400004C2812D06A2811D104E074280DD07A2853
:10D410000CD10AE045F4001507E0617845F4801569
:10D42000814202D1641C05F58015641C20786928AE
:10D430003ED006DC0028B3D063280BD0642804D18A
:10D4400036E0732810D075285CD052460D9990476D
:10D45000761CA5E017F8040B8DF8000000208DF86D
:10D460000100E846012003E057F8048B4FF0FF303D
:10D4700069074FF0000501D40AE06D1C4D450DDA37
:10D480008542FADB18F805100029F6D106E06D1C7C
:10D490008542FCDB18F805100029F8D12E4404E081
:10D4A00018F8010B52460D9990476D1EF8D277E09F
:10D4B00000200A90C5F302504FF00A0B02280CD04E
:10D4C00001CFC117021E71F100020CDA0023D0EB6C
:10D4D000030063EB01012D2208E0FF1D27F0070781
:10D4E000F7E80201EEE72A0504D52B228DF8242067
:10D4F000012203E0EA070FD02022F7E70DF1200810
:10D50000089218E000200A90C5F302504FF00A0B71
:10D51000022803D001CF00210022EFE7FF1D27F0F2
:10D520000707F7E80201F7E75A460A9BFDF71CFEDA
:10D53000303208F8012D50EA0102F5D1ADEB0800B8
:10D5400000F1200B680701D44FF00109D94502DD35
:10D55000A9EB0B0000E000208146002506E009A8A9
:10D560005246405D0D9990476D1C761C0898854287
:10D57000F5DB04E0302052460D999047761CB9F156
:10D580000001A9F10109F5DC05E018F8010B52468C
:10D590000D999047761CBBF10001ABF1010BF4DC57
:10D5A000641CFAE60928010070B5114C05460026F6
:10D5B000A07810B1A670FFF70BF80A2D02D02078E2
:10D5C0000F2803D96078401C6070267061780329A9
:10D5D00001D90120A0700D2D08D00A2D06D0EAB285
:10D5E0002078FFF7A3F82078401C2070284670BDF3
:10D5F00068000020FFF7E4F94FF4487422464FF426
:10D60000FA710320FEF7BEFE224640F226210420D6
:10D61000FEF7B8FE2046FFF765FD00BFFDF7F4FFFB
:10D62000FCE7000044D6000800000020D400000001
:10D630005CD3000818D70008D4000020E4050000DF
:10D640006CD3000802040608000000000102030475
:10D65000010203040607080900A24A0400000000B2
:10D660000000000001020304060708090000000092
:10D6700000C201000000000000000000004B00009C
:10D68000000000000000000000C2010000000000D7
:10D69000000000000000000000000000000000008A
:10D6A000000000000000000000000000000000007A
:10D6B000000000000000000000000000000000006A
:10D6C000000000000000000000000000000000005A
:10D6D000000000000000000000000000000000004A
:10D6E0000000000000000000200300000000000017
:10D6F000000000000000000000000000000000002A
:10D700000000000000000000000000000000000019
:08D71000000000000000000011
:040000050800B1310D
:00000001FF
